{
  "_format": "hh-sol-artifact-1",
  "contractName": "FakeUsdt",
  "sourceName": "contracts/FakeUsdt.sol",
  "abi": [
    {
      "inputs": [],
      "stateMutability": "nonpayable",
      "type": "constructor"
    },
    {
      "anonymous": false,
      "inputs": [
        {
          "indexed": true,
          "internalType": "address",
          "name": "owner",
          "type": "address"
        },
        {
          "indexed": true,
          "internalType": "address",
          "name": "spender",
          "type": "address"
        },
        {
          "indexed": false,
          "internalType": "uint256",
          "name": "value",
          "type": "uint256"
        }
      ],
      "name": "Approval",
      "type": "event"
    },
    {
      "anonymous": false,
      "inputs": [
        {
          "indexed": true,
          "internalType": "address",
          "name": "previousOwner",
          "type": "address"
        },
        {
          "indexed": true,
          "internalType": "address",
          "name": "newOwner",
          "type": "address"
        }
      ],
      "name": "OwnershipTransferred",
      "type": "event"
    },
    {
      "anonymous": false,
      "inputs": [
        {
          "indexed": true,
          "internalType": "address",
          "name": "newMinter",
          "type": "address"
        },
        {
          "indexed": false,
          "internalType": "bool",
          "name": "isMinter",
          "type": "bool"
        }
      ],
      "name": "SetMinters",
      "type": "event"
    },
    {
      "anonymous": false,
      "inputs": [
        {
          "indexed": true,
          "internalType": "address",
          "name": "from",
          "type": "address"
        },
        {
          "indexed": true,
          "internalType": "address",
          "name": "to",
          "type": "address"
        },
        {
          "indexed": false,
          "internalType": "uint256",
          "name": "value",
          "type": "uint256"
        }
      ],
      "name": "Transfer",
      "type": "event"
    },
    {
      "inputs": [
        {
          "internalType": "address",
          "name": "owner",
          "type": "address"
        },
        {
          "internalType": "address",
          "name": "spender",
          "type": "address"
        }
      ],
      "name": "allowance",
      "outputs": [
        {
          "internalType": "uint256",
          "name": "",
          "type": "uint256"
        }
      ],
      "stateMutability": "view",
      "type": "function"
    },
    {
      "inputs": [
        {
          "internalType": "address",
          "name": "spender",
          "type": "address"
        },
        {
          "internalType": "uint256",
          "name": "amount",
          "type": "uint256"
        }
      ],
      "name": "approve",
      "outputs": [
        {
          "internalType": "bool",
          "name": "",
          "type": "bool"
        }
      ],
      "stateMutability": "nonpayable",
      "type": "function"
    },
    {
      "inputs": [
        {
          "internalType": "address",
          "name": "account",
          "type": "address"
        }
      ],
      "name": "balanceOf",
      "outputs": [
        {
          "internalType": "uint256",
          "name": "",
          "type": "uint256"
        }
      ],
      "stateMutability": "view",
      "type": "function"
    },
    {
      "inputs": [],
      "name": "decimals",
      "outputs": [
        {
          "internalType": "uint8",
          "name": "",
          "type": "uint8"
        }
      ],
      "stateMutability": "view",
      "type": "function"
    },
    {
      "inputs": [
        {
          "internalType": "address",
          "name": "spender",
          "type": "address"
        },
        {
          "internalType": "uint256",
          "name": "subtractedValue",
          "type": "uint256"
        }
      ],
      "name": "decreaseAllowance",
      "outputs": [
        {
          "internalType": "bool",
          "name": "",
          "type": "bool"
        }
      ],
      "stateMutability": "nonpayable",
      "type": "function"
    },
    {
      "inputs": [
        {
          "internalType": "address",
          "name": "_minter",
          "type": "address"
        }
      ],
      "name": "disableMinter",
      "outputs": [],
      "stateMutability": "nonpayable",
      "type": "function"
    },
    {
      "inputs": [],
      "name": "getOwner",
      "outputs": [
        {
          "internalType": "address",
          "name": "",
          "type": "address"
        }
      ],
      "stateMutability": "view",
      "type": "function"
    },
    {
      "inputs": [
        {
          "internalType": "address",
          "name": "spender",
          "type": "address"
        },
        {
          "internalType": "uint256",
          "name": "addedValue",
          "type": "uint256"
        }
      ],
      "name": "increaseAllowance",
      "outputs": [
        {
          "internalType": "bool",
          "name": "",
          "type": "bool"
        }
      ],
      "stateMutability": "nonpayable",
      "type": "function"
    },
    {
      "inputs": [
        {
          "internalType": "address",
          "name": "",
          "type": "address"
        }
      ],
      "name": "isMinters",
      "outputs": [
        {
          "internalType": "bool",
          "name": "",
          "type": "bool"
        }
      ],
      "stateMutability": "view",
      "type": "function"
    },
    {
      "inputs": [
        {
          "internalType": "uint256",
          "name": "amount",
          "type": "uint256"
        }
      ],
      "name": "mint",
      "outputs": [
        {
          "internalType": "bool",
          "name": "",
          "type": "bool"
        }
      ],
      "stateMutability": "nonpayable",
      "type": "function"
    },
    {
      "inputs": [],
      "name": "name",
      "outputs": [
        {
          "internalType": "string",
          "name": "",
          "type": "string"
        }
      ],
      "stateMutability": "view",
      "type": "function"
    },
    {
      "inputs": [],
      "name": "owner",
      "outputs": [
        {
          "internalType": "address",
          "name": "",
          "type": "address"
        }
      ],
      "stateMutability": "view",
      "type": "function"
    },
    {
      "inputs": [],
      "name": "renounceOwnership",
      "outputs": [],
      "stateMutability": "nonpayable",
      "type": "function"
    },
    {
      "inputs": [
        {
          "internalType": "address",
          "name": "_newMinter",
          "type": "address"
        }
      ],
      "name": "setMinter",
      "outputs": [],
      "stateMutability": "nonpayable",
      "type": "function"
    },
    {
      "inputs": [],
      "name": "symbol",
      "outputs": [
        {
          "internalType": "string",
          "name": "",
          "type": "string"
        }
      ],
      "stateMutability": "view",
      "type": "function"
    },
    {
      "inputs": [],
      "name": "totalSupply",
      "outputs": [
        {
          "internalType": "uint256",
          "name": "",
          "type": "uint256"
        }
      ],
      "stateMutability": "view",
      "type": "function"
    },
    {
      "inputs": [
        {
          "internalType": "address",
          "name": "recipient",
          "type": "address"
        },
        {
          "internalType": "uint256",
          "name": "amount",
          "type": "uint256"
        }
      ],
      "name": "transfer",
      "outputs": [
        {
          "internalType": "bool",
          "name": "",
          "type": "bool"
        }
      ],
      "stateMutability": "nonpayable",
      "type": "function"
    },
    {
      "inputs": [
        {
          "internalType": "address",
          "name": "sender",
          "type": "address"
        },
        {
          "internalType": "address",
          "name": "recipient",
          "type": "address"
        },
        {
          "internalType": "uint256",
          "name": "amount",
          "type": "uint256"
        }
      ],
      "name": "transferFrom",
      "outputs": [
        {
          "internalType": "bool",
          "name": "",
          "type": "bool"
        }
      ],
      "stateMutability": "nonpayable",
      "type": "function"
    },
    {
      "inputs": [
        {
          "internalType": "address",
          "name": "newOwner",
          "type": "address"
        }
      ],
      "name": "transferOwnership",
      "outputs": [],
      "stateMutability": "nonpayable",
      "type": "function"
    }
  ],
  "bytecode": "0x608060405234801561001057600080fd5b50600061001b61012a565b600080546001600160a01b0319166001600160a01b0383169081178255604051929350917f8be0079c531659141344cd1fd0a4f28419497f9722a3daafe3b4186f6b6457e0908290a3506040805180820190915260098082526811985ad9481554d11560ba1b60209092019182526100959160079161012e565b50604080518082019091526004808252631554d11560e21b60209092019182526100c19160069161012e565b506005805460ff19166006179055660c6f3b40b6c0006004819055336000818152600260209081526040808320859055805194855251929391927fddf252ad1be2c89b69c2b068fc378daa952ba7f163c4a11628f55a4df523b3ef9281900390910190a36101c1565b3390565b828054600181600116156101000203166002900490600052602060002090601f016020900481019282601f1061016f57805160ff191683800117855561019c565b8280016001018555821561019c579182015b8281111561019c578251825591602001919060010190610181565b506101a89291506101ac565b5090565b5b808211156101a857600081556001016101ad565b610f6f80620001d16000396000f3fe608060405234801561001057600080fd5b50600436106101215760003560e01c8063893d20e8116100ad578063a9059cbb11610071578063a9059cbb14610350578063ada3da151461037c578063dd62ed3e146103a2578063f2fde38b146103d0578063fca3b5aa146103f657610121565b8063893d20e8146102d35780638da5cb5b146102f757806395d89b41146102ff578063a0712d6814610307578063a457c2d71461032457610121565b806323b872dd116100f457806323b872dd14610225578063313ce5671461025b578063395093511461027957806370a08231146102a5578063715018a6146102cb57610121565b806306fdde0314610126578063095ea7b3146101a357806318160ddd146101e357806321a5ceee146101fd575b600080fd5b61012e61041c565b6040805160208082528351818301528351919283929083019185019080838360005b83811015610168578181015183820152602001610150565b50505050905090810190601f1680156101955780820380516001836020036101000a031916815260200191505b509250505060405180910390f35b6101cf600480360360408110156101b957600080fd5b506001600160a01b0381351690602001356104b2565b604080519115158252519081900360200190f35b6101eb6104cf565b60408051918252519081900360200190f35b6102236004803603602081101561021357600080fd5b50356001600160a01b03166104d5565b005b6101cf6004803603606081101561023b57600080fd5b506001600160a01b03813581169160208101359091169060400135610583565b61026361060a565b6040805160ff9092168252519081900360200190f35b6101cf6004803603604081101561028f57600080fd5b506001600160a01b038135169060200135610613565b6101eb600480360360208110156102bb57600080fd5b50356001600160a01b0316610661565b61022361067c565b6102db61071e565b604080516001600160a01b039092168252519081900360200190f35b6102db61072d565b61012e61073c565b6101cf6004803603602081101561031d57600080fd5b503561079d565b6101cf6004803603604081101561033a57600080fd5b506001600160a01b038135169060200135610809565b6101cf6004803603604081101561036657600080fd5b506001600160a01b038135169060200135610871565b6101cf6004803603602081101561039257600080fd5b50356001600160a01b0316610885565b6101eb600480360360408110156103b857600080fd5b506001600160a01b038135811691602001351661089a565b610223600480360360208110156103e657600080fd5b50356001600160a01b03166108c5565b6102236004803603602081101561040c57600080fd5b50356001600160a01b0316610929565b60078054604080516020601f60026000196101006001881615020190951694909404938401819004810282018101909252828152606093909290918301828280156104a85780601f1061047d576101008083540402835291602001916104a8565b820191906000526020600020905b81548152906001019060200180831161048b57829003601f168201915b5050505050905090565b60006104c66104bf6109dc565b84846109e0565b50600192915050565b60045490565b6104dd6109dc565b6000546001600160a01b0390811691161461052d576040805162461bcd60e51b81526020600482018190526024820152600080516020610e8b833981519152604482015290519081900360640190fd5b6001600160a01b0381166000818152600160209081526040808320805460ff191690558051928352517f4579ec50a131ee14d9ab0dfeddceba4be2fb6907f7326c52237be3fab060ba7f9281900390910190a250565b6000610590848484610acc565b6106008461059c6109dc565b6105fb85604051806060016040528060288152602001610e63602891396001600160a01b038a166000908152600360205260408120906105da6109dc565b6001600160a01b031681526020810191909152604001600020549190610b9a565b6109e0565b5060019392505050565b60055460ff1690565b60006104c66106206109dc565b846105fb85600360006106316109dc565b6001600160a01b03908116825260208083019390935260409182016000908120918c168152925290205490610c31565b6001600160a01b031660009081526002602052604090205490565b6106846109dc565b6000546001600160a01b039081169116146106d4576040805162461bcd60e51b81526020600482018190526024820152600080516020610e8b833981519152604482015290519081900360640190fd5b600080546040516001600160a01b03909116907f8be0079c531659141344cd1fd0a4f28419497f9722a3daafe3b4186f6b6457e0908390a3600080546001600160a01b0319169055565b600061072861072d565b905090565b6000546001600160a01b031690565b60068054604080516020601f60026000196101006001881615020190951694909404938401819004810282018101909252828152606093909290918301828280156104a85780601f1061047d576101008083540402835291602001916104a8565b33600090815260016020819052604082205460ff161515146107f05760405162461bcd60e51b8152600401808060200182810382526022815260200180610ed16022913960400191505060405180910390fd5b6108016107fb6109dc565b83610c92565b506001919050565b60006104c66108166109dc565b846105fb85604051806060016040528060258152602001610ef360259139600360006108406109dc565b6001600160a01b03908116825260208083019390935260409182016000908120918d16815292529020549190610b9a565b60006104c661087e6109dc565b8484610acc565b60016020526000908152604090205460ff1681565b6001600160a01b03918216600090815260036020908152604080832093909416825291909152205490565b6108cd6109dc565b6000546001600160a01b0390811691161461091d576040805162461bcd60e51b81526020600482018190526024820152600080516020610e8b833981519152604482015290519081900360640190fd5b61092681610d78565b50565b6109316109dc565b6000546001600160a01b03908116911614610981576040805162461bcd60e51b81526020600482018190526024820152600080516020610e8b833981519152604482015290519081900360640190fd5b6001600160a01b038116600081815260016020818152604092839020805460ff191683179055825191825291517f4579ec50a131ee14d9ab0dfeddceba4be2fb6907f7326c52237be3fab060ba7f929181900390910190a250565b3390565b6001600160a01b038316610a255760405162461bcd60e51b8152600401808060200182810382526024815260200180610e196024913960400191505060405180910390fd5b6001600160a01b038216610a6a5760405162461bcd60e51b8152600401808060200182810382526022815260200180610f186022913960400191505060405180910390fd5b6001600160a01b03808416600081815260036020908152604080832094871680845294825291829020859055815185815291517f8c5be1e5ebec7d5bd14f71427d1e84f3dd0314c0f7b2291e5b200ac8c7c3b9259281900390910190a3505050565b6000819050610b0e82604051806060016040528060268152602001610eab602691396001600160a01b0387166000908152600260205260409020549190610b9a565b6001600160a01b038086166000908152600260205260408082209390935590851681522054610b3d9082610c31565b6001600160a01b0380851660008181526002602090815260409182902094909455805186815290519193928816927fddf252ad1be2c89b69c2b068fc378daa952ba7f163c4a11628f55a4df523b3ef92918290030190a350505050565b60008184841115610c295760405162461bcd60e51b81526004018080602001828103825283818151815260200191508051906020019080838360005b83811015610bee578181015183820152602001610bd6565b50505050905090810190601f168015610c1b5780820380516001836020036101000a031916815260200191505b509250505060405180910390fd5b505050900390565b600082820183811015610c8b576040805162461bcd60e51b815260206004820152601b60248201527f536166654d6174683a206164646974696f6e206f766572666c6f770000000000604482015290519081900360640190fd5b9392505050565b6001600160a01b038216610ced576040805162461bcd60e51b815260206004820152601f60248201527f42455032303a206d696e7420746f20746865207a65726f206164647265737300604482015290519081900360640190fd5b600454610cfa9082610c31565b6004556001600160a01b038216600090815260026020526040902054610d209082610c31565b6001600160a01b03831660008181526002602090815260408083209490945583518581529351929391927fddf252ad1be2c89b69c2b068fc378daa952ba7f163c4a11628f55a4df523b3ef9281900390910190a35050565b6001600160a01b038116610dbd5760405162461bcd60e51b8152600401808060200182810382526026815260200180610e3d6026913960400191505060405180910390fd5b600080546040516001600160a01b03808516939216917f8be0079c531659141344cd1fd0a4f28419497f9722a3daafe3b4186f6b6457e091a3600080546001600160a01b0319166001600160a01b039290921691909117905556fe42455032303a20617070726f76652066726f6d20746865207a65726f20616464726573734f776e61626c653a206e6577206f776e657220697320746865207a65726f206164647265737342455032303a207472616e7366657220616d6f756e74206578636565647320616c6c6f77616e63654f776e61626c653a2063616c6c6572206973206e6f7420746865206f776e657242455032303a207472616e7366657220616d6f756e7420657863656564732062616c616e63654d696e7461626c653a2063616c6c6572206973206e6f7420746865206d696e74657242455032303a2064656372656173656420616c6c6f77616e63652062656c6f77207a65726f42455032303a20617070726f766520746f20746865207a65726f2061646472657373a264697066735822122083ef326bb7aa41e810b6946e0c81ccba9857bc20cfc2f667f539e9ef73227da964736f6c634300060c0033",
  "linkReferences": {},
  "deployedLinkReferences": {}
}