{
  "_format": "hh-sol-artifact-1",
  "contractName": "Mintable",
  "sourceName": "contracts/FakeUsdt.sol",
  "abi": [
    {
      "anonymous": false,
      "inputs": [
        {
          "indexed": true,
          "internalType": "address",
          "name": "previousOwner",
          "type": "address"
        },
        {
          "indexed": true,
          "internalType": "address",
          "name": "newOwner",
          "type": "address"
        }
      ],
      "name": "OwnershipTransferred",
      "type": "event"
    },
    {
      "anonymous": false,
      "inputs": [
        {
          "indexed": true,
          "internalType": "address",
          "name": "newMinter",
          "type": "address"
        },
        {
          "indexed": false,
          "internalType": "bool",
          "name": "isMinter",
          "type": "bool"
        }
      ],
      "name": "SetMinters",
      "type": "event"
    },
    {
      "inputs": [
        {
          "internalType": "address",
          "name": "_minter",
          "type": "address"
        }
      ],
      "name": "disableMinter",
      "outputs": [],
      "stateMutability": "nonpayable",
      "type": "function"
    },
    {
      "inputs": [
        {
          "internalType": "address",
          "name": "",
          "type": "address"
        }
      ],
      "name": "isMinters",
      "outputs": [
        {
          "internalType": "bool",
          "name": "",
          "type": "bool"
        }
      ],
      "stateMutability": "view",
      "type": "function"
    },
    {
      "inputs": [],
      "name": "owner",
      "outputs": [
        {
          "internalType": "address",
          "name": "",
          "type": "address"
        }
      ],
      "stateMutability": "view",
      "type": "function"
    },
    {
      "inputs": [],
      "name": "renounceOwnership",
      "outputs": [],
      "stateMutability": "nonpayable",
      "type": "function"
    },
    {
      "inputs": [
        {
          "internalType": "address",
          "name": "_newMinter",
          "type": "address"
        }
      ],
      "name": "setMinter",
      "outputs": [],
      "stateMutability": "nonpayable",
      "type": "function"
    },
    {
      "inputs": [
        {
          "internalType": "address",
          "name": "newOwner",
          "type": "address"
        }
      ],
      "name": "transferOwnership",
      "outputs": [],
      "stateMutability": "nonpayable",
      "type": "function"
    }
  ],
  "bytecode": "0x608060405234801561001057600080fd5b50600061001b61006a565b600080546001600160a01b0319166001600160a01b0383169081178255604051929350917f8be0079c531659141344cd1fd0a4f28419497f9722a3daafe3b4186f6b6457e0908290a35061006e565b3390565b6104ec8061007d6000396000f3fe608060405234801561001057600080fd5b50600436106100625760003560e01c806321a5ceee14610067578063715018a61461008f5780638da5cb5b14610097578063ada3da15146100bb578063f2fde38b146100f5578063fca3b5aa1461011b575b600080fd5b61008d6004803603602081101561007d57600080fd5b50356001600160a01b0316610141565b005b61008d6101ef565b61009f610291565b604080516001600160a01b039092168252519081900360200190f35b6100e1600480360360208110156100d157600080fd5b50356001600160a01b03166102a0565b604080519115158252519081900360200190f35b61008d6004803603602081101561010b57600080fd5b50356001600160a01b03166102b5565b61008d6004803603602081101561013157600080fd5b50356001600160a01b0316610319565b6101496103cc565b6000546001600160a01b03908116911614610199576040805162461bcd60e51b81526020600482018190526024820152600080516020610497833981519152604482015290519081900360640190fd5b6001600160a01b0381166000818152600160209081526040808320805460ff191690558051928352517f4579ec50a131ee14d9ab0dfeddceba4be2fb6907f7326c52237be3fab060ba7f9281900390910190a250565b6101f76103cc565b6000546001600160a01b03908116911614610247576040805162461bcd60e51b81526020600482018190526024820152600080516020610497833981519152604482015290519081900360640190fd5b600080546040516001600160a01b03909116907f8be0079c531659141344cd1fd0a4f28419497f9722a3daafe3b4186f6b6457e0908390a3600080546001600160a01b0319169055565b6000546001600160a01b031690565b60016020526000908152604090205460ff1681565b6102bd6103cc565b6000546001600160a01b0390811691161461030d576040805162461bcd60e51b81526020600482018190526024820152600080516020610497833981519152604482015290519081900360640190fd5b610316816103d0565b50565b6103216103cc565b6000546001600160a01b03908116911614610371576040805162461bcd60e51b81526020600482018190526024820152600080516020610497833981519152604482015290519081900360640190fd5b6001600160a01b038116600081815260016020818152604092839020805460ff191683179055825191825291517f4579ec50a131ee14d9ab0dfeddceba4be2fb6907f7326c52237be3fab060ba7f929181900390910190a250565b3390565b6001600160a01b0381166104155760405162461bcd60e51b81526004018080602001828103825260268152602001806104716026913960400191505060405180910390fd5b600080546040516001600160a01b03808516939216917f8be0079c531659141344cd1fd0a4f28419497f9722a3daafe3b4186f6b6457e091a3600080546001600160a01b0319166001600160a01b039290921691909117905556fe4f776e61626c653a206e6577206f776e657220697320746865207a65726f20616464726573734f776e61626c653a2063616c6c6572206973206e6f7420746865206f776e6572a26469706673582212205e6e32a35cf1cc12c11417c9c98328a2d5bd461de33784dff4ef10851e70f65a64736f6c634300060c0033",
  "linkReferences": {},
  "deployedLinkReferences": {}
}