{
  "_format": "hh-sol-artifact-1",
  "contractName": "SHARKBABYOKEN",
  "sourceName": "contracts/sharkbaby.sol",
  "abi": [
    {
      "inputs": [
        {
          "internalType": "address",
          "name": "_RouterAddress",
          "type": "address"
        }
      ],
      "stateMutability": "nonpayable",
      "type": "constructor"
    },
    {
      "anonymous": false,
      "inputs": [
        {
          "indexed": true,
          "internalType": "address",
          "name": "owner",
          "type": "address"
        },
        {
          "indexed": true,
          "internalType": "address",
          "name": "spender",
          "type": "address"
        },
        {
          "indexed": false,
          "internalType": "uint256",
          "name": "value",
          "type": "uint256"
        }
      ],
      "name": "Approval",
      "type": "event"
    },
    {
      "anonymous": false,
      "inputs": [
        {
          "indexed": false,
          "internalType": "address",
          "name": "user",
          "type": "address"
        },
        {
          "indexed": false,
          "internalType": "bool",
          "name": "isExlcude",
          "type": "bool"
        }
      ],
      "name": "ExcludeFromFee",
      "type": "event"
    },
    {
      "anonymous": false,
      "inputs": [
        {
          "indexed": true,
          "internalType": "address",
          "name": "previousOwner",
          "type": "address"
        },
        {
          "indexed": true,
          "internalType": "address",
          "name": "newOwner",
          "type": "address"
        }
      ],
      "name": "OwnershipTransferred",
      "type": "event"
    },
    {
      "anonymous": false,
      "inputs": [
        {
          "components": [
            {
              "internalType": "uint256",
              "name": "marketing",
              "type": "uint256"
            },
            {
              "internalType": "uint256",
              "name": "gameWallet",
              "type": "uint256"
            },
            {
              "internalType": "uint256",
              "name": "liquidity",
              "type": "uint256"
            },
            {
              "internalType": "uint256",
              "name": "poolfee",
              "type": "uint256"
            }
          ],
          "indexed": false,
          "internalType": "struct SHARKBABYOKEN.Fees",
          "name": "buyFees",
          "type": "tuple"
        }
      ],
      "name": "SetBuyFee",
      "type": "event"
    },
    {
      "anonymous": false,
      "inputs": [
        {
          "components": [
            {
              "internalType": "uint256",
              "name": "marketing",
              "type": "uint256"
            },
            {
              "internalType": "uint256",
              "name": "gameWallet",
              "type": "uint256"
            },
            {
              "internalType": "uint256",
              "name": "liquidity",
              "type": "uint256"
            },
            {
              "internalType": "uint256",
              "name": "poolfee",
              "type": "uint256"
            }
          ],
          "indexed": false,
          "internalType": "struct SHARKBABYOKEN.Fees",
          "name": "sellFees",
          "type": "tuple"
        }
      ],
      "name": "SetSellFee",
      "type": "event"
    },
    {
      "anonymous": false,
      "inputs": [
        {
          "indexed": false,
          "internalType": "uint256",
          "name": "tokensSwapped",
          "type": "uint256"
        },
        {
          "indexed": false,
          "internalType": "uint256",
          "name": "ethReceived",
          "type": "uint256"
        },
        {
          "indexed": false,
          "internalType": "uint256",
          "name": "tokensIntoLiqudity",
          "type": "uint256"
        }
      ],
      "name": "SwapAndLiquify",
      "type": "event"
    },
    {
      "anonymous": false,
      "inputs": [
        {
          "indexed": true,
          "internalType": "address",
          "name": "from",
          "type": "address"
        },
        {
          "indexed": true,
          "internalType": "address",
          "name": "to",
          "type": "address"
        },
        {
          "indexed": false,
          "internalType": "uint256",
          "name": "value",
          "type": "uint256"
        }
      ],
      "name": "Transfer",
      "type": "event"
    },
    {
      "inputs": [],
      "name": "PancakeSwapRouter",
      "outputs": [
        {
          "internalType": "contract IPancakeSwapRouter",
          "name": "",
          "type": "address"
        }
      ],
      "stateMutability": "view",
      "type": "function"
    },
    {
      "inputs": [],
      "name": "PancakeSwapV2Pair",
      "outputs": [
        {
          "internalType": "address",
          "name": "",
          "type": "address"
        }
      ],
      "stateMutability": "view",
      "type": "function"
    },
    {
      "inputs": [],
      "name": "_maxTxAmount",
      "outputs": [
        {
          "internalType": "uint256",
          "name": "",
          "type": "uint256"
        }
      ],
      "stateMutability": "view",
      "type": "function"
    },
    {
      "inputs": [
        {
          "internalType": "address",
          "name": "owner",
          "type": "address"
        },
        {
          "internalType": "address",
          "name": "spender",
          "type": "address"
        }
      ],
      "name": "allowance",
      "outputs": [
        {
          "internalType": "uint256",
          "name": "",
          "type": "uint256"
        }
      ],
      "stateMutability": "view",
      "type": "function"
    },
    {
      "inputs": [
        {
          "internalType": "address",
          "name": "spender",
          "type": "address"
        },
        {
          "internalType": "uint256",
          "name": "amount",
          "type": "uint256"
        }
      ],
      "name": "approve",
      "outputs": [
        {
          "internalType": "bool",
          "name": "",
          "type": "bool"
        }
      ],
      "stateMutability": "nonpayable",
      "type": "function"
    },
    {
      "inputs": [],
      "name": "babyPoolAddress",
      "outputs": [
        {
          "internalType": "address",
          "name": "",
          "type": "address"
        }
      ],
      "stateMutability": "view",
      "type": "function"
    },
    {
      "inputs": [
        {
          "internalType": "address",
          "name": "account",
          "type": "address"
        }
      ],
      "name": "balanceOf",
      "outputs": [
        {
          "internalType": "uint256",
          "name": "",
          "type": "uint256"
        }
      ],
      "stateMutability": "view",
      "type": "function"
    },
    {
      "inputs": [
        {
          "internalType": "uint256",
          "name": "amount",
          "type": "uint256"
        }
      ],
      "name": "burn",
      "outputs": [],
      "stateMutability": "nonpayable",
      "type": "function"
    },
    {
      "inputs": [],
      "name": "buyFees",
      "outputs": [
        {
          "internalType": "uint256",
          "name": "marketing",
          "type": "uint256"
        },
        {
          "internalType": "uint256",
          "name": "gameWallet",
          "type": "uint256"
        },
        {
          "internalType": "uint256",
          "name": "liquidity",
          "type": "uint256"
        },
        {
          "internalType": "uint256",
          "name": "poolfee",
          "type": "uint256"
        }
      ],
      "stateMutability": "view",
      "type": "function"
    },
    {
      "inputs": [],
      "name": "decimals",
      "outputs": [
        {
          "internalType": "uint8",
          "name": "",
          "type": "uint8"
        }
      ],
      "stateMutability": "view",
      "type": "function"
    },
    {
      "inputs": [
        {
          "internalType": "address",
          "name": "spender",
          "type": "address"
        },
        {
          "internalType": "uint256",
          "name": "subtractedValue",
          "type": "uint256"
        }
      ],
      "name": "decreaseAllowance",
      "outputs": [
        {
          "internalType": "bool",
          "name": "",
          "type": "bool"
        }
      ],
      "stateMutability": "nonpayable",
      "type": "function"
    },
    {
      "inputs": [
        {
          "internalType": "address",
          "name": "user",
          "type": "address"
        },
        {
          "internalType": "bool",
          "name": "_isExclude",
          "type": "bool"
        }
      ],
      "name": "excludeAddressFromFee",
      "outputs": [],
      "stateMutability": "nonpayable",
      "type": "function"
    },
    {
      "inputs": [],
      "name": "gameAddress",
      "outputs": [
        {
          "internalType": "address",
          "name": "",
          "type": "address"
        }
      ],
      "stateMutability": "view",
      "type": "function"
    },
    {
      "inputs": [],
      "name": "getOwner",
      "outputs": [
        {
          "internalType": "address",
          "name": "",
          "type": "address"
        }
      ],
      "stateMutability": "view",
      "type": "function"
    },
    {
      "inputs": [],
      "name": "getTotalBuyFee",
      "outputs": [
        {
          "internalType": "uint256",
          "name": "",
          "type": "uint256"
        }
      ],
      "stateMutability": "view",
      "type": "function"
    },
    {
      "inputs": [],
      "name": "getTotalSellFee",
      "outputs": [
        {
          "internalType": "uint256",
          "name": "",
          "type": "uint256"
        }
      ],
      "stateMutability": "view",
      "type": "function"
    },
    {
      "inputs": [
        {
          "internalType": "address",
          "name": "spender",
          "type": "address"
        },
        {
          "internalType": "uint256",
          "name": "addedValue",
          "type": "uint256"
        }
      ],
      "name": "increaseAllowance",
      "outputs": [
        {
          "internalType": "bool",
          "name": "",
          "type": "bool"
        }
      ],
      "stateMutability": "nonpayable",
      "type": "function"
    },
    {
      "inputs": [],
      "name": "marketingAddress",
      "outputs": [
        {
          "internalType": "address",
          "name": "",
          "type": "address"
        }
      ],
      "stateMutability": "view",
      "type": "function"
    },
    {
      "inputs": [],
      "name": "name",
      "outputs": [
        {
          "internalType": "string",
          "name": "",
          "type": "string"
        }
      ],
      "stateMutability": "view",
      "type": "function"
    },
    {
      "inputs": [],
      "name": "numTokensSellToAddToLiquidity",
      "outputs": [
        {
          "internalType": "uint256",
          "name": "",
          "type": "uint256"
        }
      ],
      "stateMutability": "view",
      "type": "function"
    },
    {
      "inputs": [],
      "name": "owner",
      "outputs": [
        {
          "internalType": "address",
          "name": "",
          "type": "address"
        }
      ],
      "stateMutability": "view",
      "type": "function"
    },
    {
      "inputs": [],
      "name": "poolAddress",
      "outputs": [
        {
          "internalType": "address",
          "name": "",
          "type": "address"
        }
      ],
      "stateMutability": "view",
      "type": "function"
    },
    {
      "inputs": [],
      "name": "renounceOwnership",
      "outputs": [],
      "stateMutability": "nonpayable",
      "type": "function"
    },
    {
      "inputs": [],
      "name": "sellFees",
      "outputs": [
        {
          "internalType": "uint256",
          "name": "marketing",
          "type": "uint256"
        },
        {
          "internalType": "uint256",
          "name": "gameWallet",
          "type": "uint256"
        },
        {
          "internalType": "uint256",
          "name": "liquidity",
          "type": "uint256"
        },
        {
          "internalType": "uint256",
          "name": "poolfee",
          "type": "uint256"
        }
      ],
      "stateMutability": "view",
      "type": "function"
    },
    {
      "inputs": [
        {
          "internalType": "address",
          "name": "_marketingAddress",
          "type": "address"
        },
        {
          "internalType": "address",
          "name": "_gameAddress",
          "type": "address"
        },
        {
          "internalType": "address",
          "name": "_poolAddress",
          "type": "address"
        }
      ],
      "name": "setFeeAddresses",
      "outputs": [],
      "stateMutability": "nonpayable",
      "type": "function"
    },
    {
      "inputs": [
        {
          "internalType": "address",
          "name": "_RouterAddress",
          "type": "address"
        }
      ],
      "name": "setInitialAddresses",
      "outputs": [],
      "stateMutability": "nonpayable",
      "type": "function"
    },
    {
      "inputs": [
        {
          "internalType": "uint256",
          "name": "maxTxAmount",
          "type": "uint256"
        }
      ],
      "name": "setMaxTxAmount",
      "outputs": [],
      "stateMutability": "nonpayable",
      "type": "function"
    },
    {
      "inputs": [
        {
          "internalType": "uint256",
          "name": "_marketingFee",
          "type": "uint256"
        },
        {
          "internalType": "uint256",
          "name": "_gameWalletFee",
          "type": "uint256"
        },
        {
          "internalType": "uint256",
          "name": "_liquidityFee",
          "type": "uint256"
        },
        {
          "internalType": "uint256",
          "name": "_poolfee",
          "type": "uint256"
        }
      ],
      "name": "setbuyFee",
      "outputs": [],
      "stateMutability": "nonpayable",
      "type": "function"
    },
    {
      "inputs": [
        {
          "internalType": "uint256",
          "name": "_marketingFee",
          "type": "uint256"
        },
        {
          "internalType": "uint256",
          "name": "_gameWalletFee",
          "type": "uint256"
        },
        {
          "internalType": "uint256",
          "name": "_liquidityFee",
          "type": "uint256"
        },
        {
          "internalType": "uint256",
          "name": "_poolfee",
          "type": "uint256"
        }
      ],
      "name": "setsellFee",
      "outputs": [],
      "stateMutability": "nonpayable",
      "type": "function"
    },
    {
      "inputs": [],
      "name": "swapAndLiquifyEnabled",
      "outputs": [
        {
          "internalType": "bool",
          "name": "",
          "type": "bool"
        }
      ],
      "stateMutability": "view",
      "type": "function"
    },
    {
      "inputs": [],
      "name": "symbol",
      "outputs": [
        {
          "internalType": "string",
          "name": "",
          "type": "string"
        }
      ],
      "stateMutability": "view",
      "type": "function"
    },
    {
      "inputs": [],
      "name": "totalSupply",
      "outputs": [
        {
          "internalType": "uint256",
          "name": "",
          "type": "uint256"
        }
      ],
      "stateMutability": "view",
      "type": "function"
    },
    {
      "inputs": [
        {
          "internalType": "address",
          "name": "recipient",
          "type": "address"
        },
        {
          "internalType": "uint256",
          "name": "amount",
          "type": "uint256"
        }
      ],
      "name": "transfer",
      "outputs": [
        {
          "internalType": "bool",
          "name": "",
          "type": "bool"
        }
      ],
      "stateMutability": "nonpayable",
      "type": "function"
    },
    {
      "inputs": [
        {
          "internalType": "address",
          "name": "sender",
          "type": "address"
        },
        {
          "internalType": "address",
          "name": "recipient",
          "type": "address"
        },
        {
          "internalType": "uint256",
          "name": "amount",
          "type": "uint256"
        }
      ],
      "name": "transferFrom",
      "outputs": [
        {
          "internalType": "bool",
          "name": "",
          "type": "bool"
        }
      ],
      "stateMutability": "nonpayable",
      "type": "function"
    },
    {
      "inputs": [
        {
          "internalType": "address",
          "name": "newOwner",
          "type": "address"
        }
      ],
      "name": "transferOwnership",
      "outputs": [],
      "stateMutability": "nonpayable",
      "type": "function"
    },
    {
      "stateMutability": "payable",
      "type": "receive"
    }
  ],
  "bytecode": "0x6080604052600c805460ff60a81b1916600160a81b1790556c7e37be2022c0914b268000000060165568056bc75e2d631000006017553480156200004257600080fd5b50604051620027503803806200275083398101604081905262000065916200047c565b600062000071620003dc565b600080546001600160a01b0319166001600160a01b0383169081178255604051929350917f8be0079c531659141344cd1fd0a4f28419497f9722a3daafe3b4186f6b6457e0908290a35060408051808201909152600980825268736861726b6261627960b81b6020909201918252620000ed91600691620003e0565b50604080518082019091526004808252635348425960e01b60209092019182526200011b91600591620003e0565b506004805460ff1916601290811782556b033b2e3c9fd0803ce800000060038190553360009081526001602090815260408083209390935560146011819055938490556013829055600d849055600e91909155600a600f556050909255600b80546001600160a01b0386166001600160a01b03199091168117909155815163c45a015560e01b815291518594919363c45a0155938084019391929190829003018186803b158015620001cc57600080fd5b505afa158015620001e1573d6000803e3d6000fd5b505050506040513d601f19601f820116820180604052508101906200020791906200047c565b6001600160a01b031663c9c6539630836001600160a01b031663ad5c46486040518163ffffffff1660e01b815260040160206040518083038186803b1580156200025057600080fd5b505afa15801562000265573d6000803e3d6000fd5b505050506040513d601f19601f820116820180604052508101906200028b91906200047c565b6040518363ffffffff1660e01b8152600401620002aa929190620004ac565b602060405180830381600087803b158015620002c557600080fd5b505af1158015620002da573d6000803e3d6000fd5b505050506040513d601f19601f820116820180604052508101906200030091906200047c565b600c80546001600160a01b0319166001600160a01b039290921691909117905560035460405133916000917fddf252ad1be2c89b69c2b068fc378daa952ba7f163c4a11628f55a4df523b3ef916200035891620004ef565b60405180910390a37f4033c61b7a7bda78889373d049a0bb6dd3500d8bff8ace1617cb78413102e8076011604051620003929190620004c6565b60405180910390a17f59b16bf8c94a0fd94bd5c030ec293d45b519b7dc85a474b840ddd20e347ff43b600d604051620003cc9190620004c6565b60405180910390a15050620004f8565b3390565b828054600181600116156101000203166002900490600052602060002090601f016020900481019282601f106200042357805160ff191683800117855562000453565b8280016001018555821562000453579182015b828111156200045357825182559160200191906001019062000436565b506200046192915062000465565b5090565b5b8082111562000461576000815560010162000466565b6000602082840312156200048e578081fd5b81516001600160a01b0381168114620004a5578182fd5b9392505050565b6001600160a01b0392831681529116602082015260400190565b815481526001820154602082015260028201546040820152600390910154606082015260800190565b90815260200190565b61224880620005086000396000f3fe6080604052600436106102085760003560e01c80637d1db4a511610118578063c1258a40116100a0578063e0f3ccf51161006f578063e0f3ccf514610565578063e4748b9e1461058a578063ec28438a1461059f578063f2fde38b146105bf578063f5034b0a146105df5761020f565b8063c1258a40146104fb578063c5820ad014610510578063d12a768814610530578063dd62ed3e146105455761020f565b8063a168d873116100e7578063a168d87314610471578063a457c2d714610486578063a5ece941146104a6578063a9059cbb146104bb578063aa1ef598146104db5761020f565b80637d1db4a51461041d578063893d20e8146104325780638da5cb5b1461044757806395d89b411461045c5761020f565b8063395093511161019b57806347cb8c041161016a57806347cb8c041461039e5780634a74bb02146103b357806370a08231146103c8578063715018a6146103e8578063799bec12146103fd5761020f565b806339509351146103295780633e34121214610349578063421ea58b1461036957806342966c681461037e5761020f565b80631ebe8be8116101d75780631ebe8be8146102b057806323b872dd146102c557806328ec13ee146102e5578063313ce567146103075761020f565b806306fdde0314610214578063095ea7b31461023f5780631755ff211461026c57806318160ddd1461028e5761020f565b3661020f57005b600080fd5b34801561022057600080fd5b506102296105f4565b6040516102369190611d80565b60405180910390f35b34801561024b57600080fd5b5061025f61025a366004611c50565b61068a565b6040516102369190611d75565b34801561027857600080fd5b506102816106a8565b6040516102369190611cf1565b34801561029a57600080fd5b506102a36106b7565b6040516102369190612090565b3480156102bc57600080fd5b506102a36106bd565b3480156102d157600080fd5b5061025f6102e0366004611bdf565b6106cf565b3480156102f157600080fd5b50610305610300366004611b25565b610756565b005b34801561031357600080fd5b5061031c610935565b604051610236919061213a565b34801561033557600080fd5b5061025f610344366004611c50565b61093e565b34801561035557600080fd5b50610305610364366004611cc0565b61098c565b34801561037557600080fd5b50610281610a11565b34801561038a57600080fd5b50610305610399366004611c7b565b610a20565b3480156103aa57600080fd5b506102a3610a2d565b3480156103bf57600080fd5b5061025f610a3f565b3480156103d457600080fd5b506102a36103e3366004611b25565b610a4f565b3480156103f457600080fd5b50610305610a6a565b34801561040957600080fd5b50610305610418366004611c1f565b610ae9565b34801561042957600080fd5b506102a3610b80565b34801561043e57600080fd5b50610281610b86565b34801561045357600080fd5b50610281610b95565b34801561046857600080fd5b50610229610ba4565b34801561047d57600080fd5b50610281610c05565b34801561049257600080fd5b5061025f6104a1366004611c50565b610c14565b3480156104b257600080fd5b50610281610c7c565b3480156104c757600080fd5b5061025f6104d6366004611c50565b610c8b565b3480156104e757600080fd5b506103056104f6366004611b95565b610c9f565b34801561050757600080fd5b50610281610d13565b34801561051c57600080fd5b5061030561052b366004611cc0565b610d22565b34801561053c57600080fd5b506102a3610d99565b34801561055157600080fd5b506102a3610560366004611b5d565b610d9f565b34801561057157600080fd5b5061057a610dca565b604051610236949392919061211f565b34801561059657600080fd5b5061057a610dd9565b3480156105ab57600080fd5b506103056105ba366004611c7b565b610de8565b3480156105cb57600080fd5b506103056105da366004611b25565b610e22565b3480156105eb57600080fd5b50610281610e60565b60068054604080516020601f60026000196101006001881615020190951694909404938401819004810282018101909252828152606093909290918301828280156106805780601f1061065557610100808354040283529160200191610680565b820191906000526020600020905b81548152906001019060200180831161066357829003601f168201915b5050505050905090565b600061069e610697610e6f565b8484610e73565b5060015b92915050565b6009546001600160a01b031681565b60035490565b60145460135460125460115401010190565b60006106dc848484610f27565b61074c846106e8610e6f565b6107478560405180606001604052806028815260200161215e602891396001600160a01b038a16600090815260026020526040812090610726610e6f565b6001600160a01b0316815260208101919091526040016000205491906115e4565b610e73565b5060019392505050565b61075e610e6f565b6000546001600160a01b039081169116146107945760405162461bcd60e51b815260040161078b90611f1a565b60405180910390fd5b600b80546001600160a01b0319166001600160a01b0383169081179091556040805163c45a015560e01b8152905183929163c45a0155916004808301926020929190829003018186803b1580156107ea57600080fd5b505afa1580156107fe573d6000803e3d6000fd5b505050506040513d601f19601f820116820180604052508101906108229190611b41565b6001600160a01b031663c9c6539630836001600160a01b031663ad5c46486040518163ffffffff1660e01b815260040160206040518083038186803b15801561086a57600080fd5b505afa15801561087e573d6000803e3d6000fd5b505050506040513d601f19601f820116820180604052508101906108a29190611b41565b6040518363ffffffff1660e01b81526004016108bf929190611d05565b602060405180830381600087803b1580156108d957600080fd5b505af11580156108ed573d6000803e3d6000fd5b505050506040513d601f19601f820116820180604052508101906109119190611b41565b600c80546001600160a01b0319166001600160a01b03929092169190911790555050565b60045460ff1690565b600061069e61094b610e6f565b84610747856002600061095c610e6f565b6001600160a01b03908116825260208083019390935260409182016000908120918c168152925290205490611610565b610994610e6f565b6000546001600160a01b039081169116146109c15760405162461bcd60e51b815260040161078b90611f1a565b60118481556012849055601383905560148290556040517f4033c61b7a7bda78889373d049a0bb6dd3500d8bff8ace1617cb78413102e80791610a0391612067565b60405180910390a150505050565b600b546001600160a01b031681565b610a2a338261163c565b50565b601054600f54600e54600d5401010190565b600c54600160a81b900460ff1681565b6001600160a01b031660009081526001602052604090205490565b610a72610e6f565b6000546001600160a01b03908116911614610a9f5760405162461bcd60e51b815260040161078b90611f1a565b600080546040516001600160a01b03909116907f8be0079c531659141344cd1fd0a4f28419497f9722a3daafe3b4186f6b6457e0908390a3600080546001600160a01b0319169055565b610af1610e6f565b6000546001600160a01b03908116911614610b1e5760405162461bcd60e51b815260040161078b90611f1a565b6001600160a01b03821660009081526015602052604090819020805460ff1916831515179055517fd5144d2a6c8ff9b87b7a40852df5102cab2ce561c06b56cc6fe7ccf1fa7f8c2d90610b749084908490611d5a565b60405180910390a15050565b60165481565b6000610b90610b95565b905090565b6000546001600160a01b031690565b60058054604080516020601f60026000196101006001881615020190951694909404938401819004810282018101909252828152606093909290918301828280156106805780601f1061065557610100808354040283529160200191610680565b6008546001600160a01b031681565b600061069e610c21610e6f565b84610747856040518060600160405280602581526020016121cc6025913960026000610c4b610e6f565b6001600160a01b03908116825260208083019390935260409182016000908120918d168152925290205491906115e4565b6007546001600160a01b031681565b600061069e610c98610e6f565b8484610f27565b610ca7610e6f565b6000546001600160a01b03908116911614610cd45760405162461bcd60e51b815260040161078b90611f1a565b600780546001600160a01b039485166001600160a01b031991821617909155600880549385169382169390931790925560098054919093169116179055565b600c546001600160a01b031681565b610d2a610e6f565b6000546001600160a01b03908116911614610d575760405162461bcd60e51b815260040161078b90611f1a565b600d848155600e849055600f83905560108290556040517f59b16bf8c94a0fd94bd5c030ec293d45b519b7dc85a474b840ddd20e347ff43b91610a0391612067565b60175481565b6001600160a01b03918216600090815260026020908152604080832093909416825291909152205490565b600d54600e54600f5460105484565b60115460125460135460145484565b610df0610e6f565b6000546001600160a01b03908116911614610e1d5760405162461bcd60e51b815260040161078b90611f1a565b601655565b610e2a610e6f565b6000546001600160a01b03908116911614610e575760405162461bcd60e51b815260040161078b90611f1a565b610a2a81611700565b600a546001600160a01b031681565b3390565b6001600160a01b038316610e995760405162461bcd60e51b815260040161078b90611e18565b6001600160a01b038216610ebf5760405162461bcd60e51b815260040161078b90612025565b6001600160a01b0380841660008181526002602090815260408083209487168084529490915290819020849055517f8c5be1e5ebec7d5bd14f71427d1e84f3dd0314c0f7b2291e5b200ac8c7c3b92590610f1a908590612090565b60405180910390a3505050565b6001600160a01b038316610f4d5760405162461bcd60e51b815260040161078b90611dd3565b6001600160a01b038216610f735760405162461bcd60e51b815260040161078b90611f4f565b600c546001600160a01b0384811691161480610f9c5750600c546001600160a01b038381169116145b8015610fc157506001600160a01b03831660009081526015602052604090205460ff16155b15610fe857806016541015610fe85760405162461bcd60e51b815260040161078b90611fd3565b61102581604051806060016040528060268152602001612186602691396001600160a01b03861660009081526001602052604090205491906115e4565b6001600160a01b038416600090815260016020526040812091909155819061104c30610a4f565b9050601654811061105c57506016545b6017548110801590819061107a5750600c54600160a01b900460ff16155b80156110945750600c546001600160a01b03878116911614155b80156110a95750600c54600160a81b900460ff165b156110bc5760175491506110bc82611781565b6001600160a01b03861660009081526015602052604090205460ff1661157157600c546001600160a01b0387811691161415611331576111146103e861110e6111036106bd565b86906103e803611822565b9061185c565b92506111346103e861110e6011600001548761182290919063ffffffff16565b6007546001600160a01b031660009081526001602052604090208054909101905560125461116b906103e89061110e908790611822565b6008546001600160a01b03166000908152600160205260409020805490910190556014546111a2906103e89061110e908790611822565b6009546001600160a01b03166000908152600160205260409020805490910190556013546111d9906103e89061110e908790611822565b306000908152600160205260409020805490910190556007546011546001600160a01b03918216918816906000805160206121ac83398151915290611227906103e89061110e908a90611822565b6040516112349190612090565b60405180910390a36008546012546001600160a01b03918216918816906000805160206121ac83398151915290611274906103e89061110e908a90611822565b6040516112819190612090565b60405180910390a36009546014546001600160a01b03918216918816906000805160206121ac833981519152906112c1906103e89061110e908a90611822565b6040516112ce9190612090565b60405180910390a3306001600160a01b0316866001600160a01b03166000805160206121ac8339815191526113176103e861110e6011600201548a61182290919063ffffffff16565b6040516113249190612090565b60405180910390a3611571565b600c546001600160a01b0386811691161415611571576113586103e861110e611103610a2d565b92506113786103e861110e600d600001548761182290919063ffffffff16565b6007546001600160a01b0316600090815260016020526040902080549091019055600e546113af906103e89061110e908790611822565b6008546001600160a01b03166000908152600160205260409020805490910190556010546113e6906103e89061110e908790611822565b6009546001600160a01b0316600090815260016020526040902080549091019055600f5461141d906103e89061110e908790611822565b30600090815260016020526040902080549091019055600754600d546001600160a01b03918216918816906000805160206121ac8339815191529061146b906103e89061110e908a90611822565b6040516114789190612090565b60405180910390a3600854600e546001600160a01b03918216918816906000805160206121ac833981519152906114b8906103e89061110e908a90611822565b6040516114c59190612090565b60405180910390a36009546010546001600160a01b03918216918816906000805160206121ac83398151915290611505906103e89061110e908a90611822565b6040516115129190612090565b60405180910390a3306001600160a01b0316866001600160a01b03166000805160206121ac83398151915261155b6103e861110e600d600201548a61182290919063ffffffff16565b6040516115689190612090565b60405180910390a35b6001600160a01b0385166000908152600160205260409020546115949084611610565b6001600160a01b0380871660008181526001602052604090819020939093559151908816906000805160206121ac833981519152906115d4908790612090565b60405180910390a3505050505050565b600081848411156116085760405162461bcd60e51b815260040161078b9190611d80565b505050900390565b6000828201838110156116355760405162461bcd60e51b815260040161078b90611ea2565b9392505050565b6001600160a01b0382166116625760405162461bcd60e51b815260040161078b90611f92565b61169f816040518060600160405280602281526020016121f1602291396001600160a01b03851660009081526001602052604090205491906115e4565b6001600160a01b0383166000908152600160205260409020556003546116c5908261189e565b6003556040516000906001600160a01b038416906000805160206121ac833981519152906116f4908590612090565b60405180910390a35050565b6001600160a01b0381166117265760405162461bcd60e51b815260040161078b90611e5c565b600080546040516001600160a01b03808516939216917f8be0079c531659141344cd1fd0a4f28419497f9722a3daafe3b4186f6b6457e091a3600080546001600160a01b0319166001600160a01b0392909216919091179055565b600c805460ff60a01b1916600160a01b17905560006117a182600261185c565b905060006117af838361189e565b9050476117bb836118e0565b60006117c7478361189e565b90506117d38382611a3c565b7f17bbfb9a6069321b6ded73bd96327c9e6b7212a5cd51ff219cd61370acafb56184828560405161180693929190612109565b60405180910390a15050600c805460ff60a01b19169055505050565b600082611831575060006106a2565b8282028284828161183e57fe5b04146116355760405162461bcd60e51b815260040161078b90611ed9565b600061163583836040518060400160405280601a81526020017f536166654d6174683a206469766973696f6e206279207a65726f000000000000815250611aee565b600061163583836040518060400160405280601e81526020017f536166654d6174683a207375627472616374696f6e206f766572666c6f7700008152506115e4565b6040805160028082526060808301845292602083019080368337019050509050308160008151811061190e57fe5b6001600160a01b03928316602091820292909201810191909152600b54604080516315ab88c960e31b81529051919093169263ad5c4648926004808301939192829003018186803b15801561196257600080fd5b505afa158015611976573d6000803e3d6000fd5b505050506040513d601f19601f8201168201806040525081019061199a9190611b41565b816001815181106119a757fe5b6001600160a01b039283166020918202929092010152600b546119cd9130911684610e73565b600b5460405163791ac94760e01b81526001600160a01b039091169063791ac94790611a06908590600090869030904290600401612099565b600060405180830381600087803b158015611a2057600080fd5b505af1158015611a34573d6000803e3d6000fd5b505050505050565b600b54611a549030906001600160a01b031684610e73565b600b546001600160a01b031663f305d719823085600080611a73610b95565b426040518863ffffffff1660e01b8152600401611a9596959493929190611d1f565b6060604051808303818588803b158015611aae57600080fd5b505af1158015611ac2573d6000803e3d6000fd5b50505050506040513d601f19601f82011682018060405250810190611ae79190611c93565b5050505050565b60008183611b0f5760405162461bcd60e51b815260040161078b9190611d80565b506000838581611b1b57fe5b0495945050505050565b600060208284031215611b36578081fd5b813561163581612148565b600060208284031215611b52578081fd5b815161163581612148565b60008060408385031215611b6f578081fd5b8235611b7a81612148565b91506020830135611b8a81612148565b809150509250929050565b600080600060608486031215611ba9578081fd5b8335611bb481612148565b92506020840135611bc481612148565b91506040840135611bd481612148565b809150509250925092565b600080600060608486031215611bf3578283fd5b8335611bfe81612148565b92506020840135611c0e81612148565b929592945050506040919091013590565b60008060408385031215611c31578182fd5b8235611c3c81612148565b915060208301358015158114611b8a578182fd5b60008060408385031215611c62578182fd5b8235611c6d81612148565b946020939093013593505050565b600060208284031215611c8c578081fd5b5035919050565b600080600060608486031215611ca7578283fd5b8351925060208401519150604084015190509250925092565b60008060008060808587031215611cd5578081fd5b5050823594602084013594506040840135936060013592509050565b6001600160a01b0391909116815260200190565b6001600160a01b0392831681529116602082015260400190565b6001600160a01b039687168152602081019590955260408501939093526060840191909152909216608082015260a081019190915260c00190565b6001600160a01b039290921682521515602082015260400190565b901515815260200190565b6000602080835283518082850152825b81811015611dac57858101830151858201604001528201611d90565b81811115611dbd5783604083870101525b50601f01601f1916929092016040019392505050565b60208082526025908201527f42455032303a207472616e736665722066726f6d20746865207a65726f206164604082015264647265737360d81b606082015260800190565b60208082526024908201527f42455032303a20617070726f76652066726f6d20746865207a65726f206164646040820152637265737360e01b606082015260800190565b60208082526026908201527f4f776e61626c653a206e6577206f776e657220697320746865207a65726f206160408201526564647265737360d01b606082015260800190565b6020808252601b908201527f536166654d6174683a206164646974696f6e206f766572666c6f770000000000604082015260600190565b60208082526021908201527f536166654d6174683a206d756c7469706c69636174696f6e206f766572666c6f6040820152607760f81b606082015260800190565b6020808252818101527f4f776e61626c653a2063616c6c6572206973206e6f7420746865206f776e6572604082015260600190565b60208082526023908201527f42455032303a207472616e7366657220746f20746865207a65726f206164647260408201526265737360e81b606082015260800190565b60208082526021908201527f42455032303a206275726e2066726f6d20746865207a65726f206164647265736040820152607360f81b606082015260800190565b60208082526032908201527f42455032303a207472616e7366657220616d6f756e742065786365656473206d604082015271185e081d1c985b9cd9995c88185b5bdd5b9d60721b606082015260800190565b60208082526022908201527f42455032303a20617070726f766520746f20746865207a65726f206164647265604082015261737360f01b606082015260800190565b815481526001820154602082015260028201546040820152600390910154606082015260800190565b90815260200190565b600060a082018783526020878185015260a0604085015281875180845260c0860191508289019350845b818110156120e85784516001600160a01b0316835293830193918301916001016120c3565b50506001600160a01b03969096166060850152505050608001529392505050565b9283526020830191909152604082015260600190565b93845260208401929092526040830152606082015260800190565b60ff91909116815260200190565b6001600160a01b0381168114610a2a57600080fdfe42455032303a207472616e7366657220616d6f756e74206578636565647320616c6c6f77616e636542455032303a207472616e7366657220616d6f756e7420657863656564732062616c616e6365ddf252ad1be2c89b69c2b068fc378daa952ba7f163c4a11628f55a4df523b3ef42455032303a2064656372656173656420616c6c6f77616e63652062656c6f77207a65726f42455032303a206275726e20616d6f756e7420657863656564732062616c616e6365a26469706673582212204eeabccf484b16aa35a163e1520e2210094c0e053765050815a76014e9c48b9064736f6c634300060c0033",
  "linkReferences": {},
  "deployedLinkReferences": {}
}