{
  "_format": "hh-sol-artifact-1",
  "contractName": "EASTERSHIB",
  "sourceName": "contracts/Eastershib.sol",
  "abi": [
    {
      "inputs": [
        {
          "internalType": "address",
          "name": "_RouterAddress",
          "type": "address"
        }
      ],
      "stateMutability": "nonpayable",
      "type": "constructor"
    },
    {
      "anonymous": false,
      "inputs": [
        {
          "indexed": true,
          "internalType": "address",
          "name": "owner",
          "type": "address"
        },
        {
          "indexed": true,
          "internalType": "address",
          "name": "spender",
          "type": "address"
        },
        {
          "indexed": false,
          "internalType": "uint256",
          "name": "value",
          "type": "uint256"
        }
      ],
      "name": "Approval",
      "type": "event"
    },
    {
      "anonymous": false,
      "inputs": [
        {
          "indexed": false,
          "internalType": "address",
          "name": "user",
          "type": "address"
        },
        {
          "indexed": false,
          "internalType": "bool",
          "name": "isExlcude",
          "type": "bool"
        }
      ],
      "name": "ExcludeFromFee",
      "type": "event"
    },
    {
      "anonymous": false,
      "inputs": [
        {
          "indexed": true,
          "internalType": "address",
          "name": "previousOwner",
          "type": "address"
        },
        {
          "indexed": true,
          "internalType": "address",
          "name": "newOwner",
          "type": "address"
        }
      ],
      "name": "OwnershipTransferred",
      "type": "event"
    },
    {
      "anonymous": false,
      "inputs": [
        {
          "indexed": false,
          "internalType": "address",
          "name": "user",
          "type": "address"
        },
        {
          "indexed": false,
          "internalType": "bool",
          "name": "isBlacklist",
          "type": "bool"
        }
      ],
      "name": "SetBlackList",
      "type": "event"
    },
    {
      "anonymous": false,
      "inputs": [
        {
          "components": [
            {
              "internalType": "uint256",
              "name": "marketing",
              "type": "uint256"
            },
            {
              "internalType": "uint256",
              "name": "gameWallet",
              "type": "uint256"
            },
            {
              "internalType": "uint256",
              "name": "liquidity",
              "type": "uint256"
            },
            {
              "internalType": "uint256",
              "name": "poolfee",
              "type": "uint256"
            }
          ],
          "indexed": false,
          "internalType": "struct EASTERSHIB.Fees",
          "name": "buyFees",
          "type": "tuple"
        }
      ],
      "name": "SetBuyFee",
      "type": "event"
    },
    {
      "anonymous": false,
      "inputs": [
        {
          "components": [
            {
              "internalType": "uint256",
              "name": "marketing",
              "type": "uint256"
            },
            {
              "internalType": "uint256",
              "name": "gameWallet",
              "type": "uint256"
            },
            {
              "internalType": "uint256",
              "name": "liquidity",
              "type": "uint256"
            },
            {
              "internalType": "uint256",
              "name": "poolfee",
              "type": "uint256"
            }
          ],
          "indexed": false,
          "internalType": "struct EASTERSHIB.Fees",
          "name": "sellFees",
          "type": "tuple"
        }
      ],
      "name": "SetSellFee",
      "type": "event"
    },
    {
      "anonymous": false,
      "inputs": [
        {
          "indexed": false,
          "internalType": "uint256",
          "name": "tokensSwapped",
          "type": "uint256"
        },
        {
          "indexed": false,
          "internalType": "uint256",
          "name": "ethReceived",
          "type": "uint256"
        },
        {
          "indexed": false,
          "internalType": "uint256",
          "name": "tokensIntoLiqudity",
          "type": "uint256"
        }
      ],
      "name": "SwapAndLiquify",
      "type": "event"
    },
    {
      "anonymous": false,
      "inputs": [
        {
          "indexed": true,
          "internalType": "address",
          "name": "from",
          "type": "address"
        },
        {
          "indexed": true,
          "internalType": "address",
          "name": "to",
          "type": "address"
        },
        {
          "indexed": false,
          "internalType": "uint256",
          "name": "value",
          "type": "uint256"
        }
      ],
      "name": "Transfer",
      "type": "event"
    },
    {
      "inputs": [],
      "name": "PancakeSwapRouter",
      "outputs": [
        {
          "internalType": "contract IPancakeSwapRouter",
          "name": "",
          "type": "address"
        }
      ],
      "stateMutability": "view",
      "type": "function"
    },
    {
      "inputs": [],
      "name": "PancakeSwapV2Pair",
      "outputs": [
        {
          "internalType": "address",
          "name": "",
          "type": "address"
        }
      ],
      "stateMutability": "view",
      "type": "function"
    },
    {
      "inputs": [],
      "name": "_maxTxAmount",
      "outputs": [
        {
          "internalType": "uint256",
          "name": "",
          "type": "uint256"
        }
      ],
      "stateMutability": "view",
      "type": "function"
    },
    {
      "inputs": [],
      "name": "_maxWalletAmount",
      "outputs": [
        {
          "internalType": "uint256",
          "name": "",
          "type": "uint256"
        }
      ],
      "stateMutability": "view",
      "type": "function"
    },
    {
      "inputs": [
        {
          "internalType": "address",
          "name": "owner",
          "type": "address"
        },
        {
          "internalType": "address",
          "name": "spender",
          "type": "address"
        }
      ],
      "name": "allowance",
      "outputs": [
        {
          "internalType": "uint256",
          "name": "",
          "type": "uint256"
        }
      ],
      "stateMutability": "view",
      "type": "function"
    },
    {
      "inputs": [
        {
          "internalType": "address",
          "name": "spender",
          "type": "address"
        },
        {
          "internalType": "uint256",
          "name": "amount",
          "type": "uint256"
        }
      ],
      "name": "approve",
      "outputs": [
        {
          "internalType": "bool",
          "name": "",
          "type": "bool"
        }
      ],
      "stateMutability": "nonpayable",
      "type": "function"
    },
    {
      "inputs": [],
      "name": "babyPoolAddress",
      "outputs": [
        {
          "internalType": "address",
          "name": "",
          "type": "address"
        }
      ],
      "stateMutability": "view",
      "type": "function"
    },
    {
      "inputs": [
        {
          "internalType": "address",
          "name": "account",
          "type": "address"
        }
      ],
      "name": "balanceOf",
      "outputs": [
        {
          "internalType": "uint256",
          "name": "",
          "type": "uint256"
        }
      ],
      "stateMutability": "view",
      "type": "function"
    },
    {
      "inputs": [
        {
          "internalType": "uint256",
          "name": "amount",
          "type": "uint256"
        }
      ],
      "name": "burn",
      "outputs": [],
      "stateMutability": "nonpayable",
      "type": "function"
    },
    {
      "inputs": [],
      "name": "buyFees",
      "outputs": [
        {
          "internalType": "uint256",
          "name": "marketing",
          "type": "uint256"
        },
        {
          "internalType": "uint256",
          "name": "gameWallet",
          "type": "uint256"
        },
        {
          "internalType": "uint256",
          "name": "liquidity",
          "type": "uint256"
        },
        {
          "internalType": "uint256",
          "name": "poolfee",
          "type": "uint256"
        }
      ],
      "stateMutability": "view",
      "type": "function"
    },
    {
      "inputs": [],
      "name": "decimals",
      "outputs": [
        {
          "internalType": "uint8",
          "name": "",
          "type": "uint8"
        }
      ],
      "stateMutability": "view",
      "type": "function"
    },
    {
      "inputs": [
        {
          "internalType": "address",
          "name": "spender",
          "type": "address"
        },
        {
          "internalType": "uint256",
          "name": "subtractedValue",
          "type": "uint256"
        }
      ],
      "name": "decreaseAllowance",
      "outputs": [
        {
          "internalType": "bool",
          "name": "",
          "type": "bool"
        }
      ],
      "stateMutability": "nonpayable",
      "type": "function"
    },
    {
      "inputs": [
        {
          "internalType": "address",
          "name": "user",
          "type": "address"
        },
        {
          "internalType": "bool",
          "name": "_isExclude",
          "type": "bool"
        }
      ],
      "name": "excludeAddressFromFee",
      "outputs": [],
      "stateMutability": "nonpayable",
      "type": "function"
    },
    {
      "inputs": [
        {
          "internalType": "address",
          "name": "user",
          "type": "address"
        },
        {
          "internalType": "bool",
          "name": "_isExclude",
          "type": "bool"
        }
      ],
      "name": "excludeAddressFromLimit",
      "outputs": [],
      "stateMutability": "nonpayable",
      "type": "function"
    },
    {
      "inputs": [],
      "name": "gameAddress",
      "outputs": [
        {
          "internalType": "address",
          "name": "",
          "type": "address"
        }
      ],
      "stateMutability": "view",
      "type": "function"
    },
    {
      "inputs": [],
      "name": "getOwner",
      "outputs": [
        {
          "internalType": "address",
          "name": "",
          "type": "address"
        }
      ],
      "stateMutability": "view",
      "type": "function"
    },
    {
      "inputs": [],
      "name": "getTotalBuyFee",
      "outputs": [
        {
          "internalType": "uint256",
          "name": "",
          "type": "uint256"
        }
      ],
      "stateMutability": "view",
      "type": "function"
    },
    {
      "inputs": [],
      "name": "getTotalSellFee",
      "outputs": [
        {
          "internalType": "uint256",
          "name": "",
          "type": "uint256"
        }
      ],
      "stateMutability": "view",
      "type": "function"
    },
    {
      "inputs": [
        {
          "internalType": "address",
          "name": "spender",
          "type": "address"
        },
        {
          "internalType": "uint256",
          "name": "addedValue",
          "type": "uint256"
        }
      ],
      "name": "increaseAllowance",
      "outputs": [
        {
          "internalType": "bool",
          "name": "",
          "type": "bool"
        }
      ],
      "stateMutability": "nonpayable",
      "type": "function"
    },
    {
      "inputs": [],
      "name": "marketingAddress",
      "outputs": [
        {
          "internalType": "address",
          "name": "",
          "type": "address"
        }
      ],
      "stateMutability": "view",
      "type": "function"
    },
    {
      "inputs": [],
      "name": "name",
      "outputs": [
        {
          "internalType": "string",
          "name": "",
          "type": "string"
        }
      ],
      "stateMutability": "view",
      "type": "function"
    },
    {
      "inputs": [],
      "name": "numTokensSellToAddToLiquidity",
      "outputs": [
        {
          "internalType": "uint256",
          "name": "",
          "type": "uint256"
        }
      ],
      "stateMutability": "view",
      "type": "function"
    },
    {
      "inputs": [],
      "name": "owner",
      "outputs": [
        {
          "internalType": "address",
          "name": "",
          "type": "address"
        }
      ],
      "stateMutability": "view",
      "type": "function"
    },
    {
      "inputs": [],
      "name": "poolAddress",
      "outputs": [
        {
          "internalType": "address",
          "name": "",
          "type": "address"
        }
      ],
      "stateMutability": "view",
      "type": "function"
    },
    {
      "inputs": [],
      "name": "renounceOwnership",
      "outputs": [],
      "stateMutability": "nonpayable",
      "type": "function"
    },
    {
      "inputs": [],
      "name": "sellFees",
      "outputs": [
        {
          "internalType": "uint256",
          "name": "marketing",
          "type": "uint256"
        },
        {
          "internalType": "uint256",
          "name": "gameWallet",
          "type": "uint256"
        },
        {
          "internalType": "uint256",
          "name": "liquidity",
          "type": "uint256"
        },
        {
          "internalType": "uint256",
          "name": "poolfee",
          "type": "uint256"
        }
      ],
      "stateMutability": "view",
      "type": "function"
    },
    {
      "inputs": [
        {
          "internalType": "address",
          "name": "user",
          "type": "address"
        },
        {
          "internalType": "bool",
          "name": "_isBlack",
          "type": "bool"
        }
      ],
      "name": "setBlacklist",
      "outputs": [],
      "stateMutability": "nonpayable",
      "type": "function"
    },
    {
      "inputs": [
        {
          "internalType": "address",
          "name": "_marketingAddress",
          "type": "address"
        },
        {
          "internalType": "address",
          "name": "_gameAddress",
          "type": "address"
        },
        {
          "internalType": "address",
          "name": "_poolAddress",
          "type": "address"
        }
      ],
      "name": "setFeeAddresses",
      "outputs": [],
      "stateMutability": "nonpayable",
      "type": "function"
    },
    {
      "inputs": [
        {
          "internalType": "address",
          "name": "_RouterAddress",
          "type": "address"
        }
      ],
      "name": "setInitialAddresses",
      "outputs": [],
      "stateMutability": "nonpayable",
      "type": "function"
    },
    {
      "inputs": [
        {
          "internalType": "uint256",
          "name": "maxTxAmount",
          "type": "uint256"
        }
      ],
      "name": "setMaxTxAmount",
      "outputs": [],
      "stateMutability": "nonpayable",
      "type": "function"
    },
    {
      "inputs": [
        {
          "internalType": "uint256",
          "name": "maxWalletAmount",
          "type": "uint256"
        }
      ],
      "name": "setMaxWalletAmount",
      "outputs": [],
      "stateMutability": "nonpayable",
      "type": "function"
    },
    {
      "inputs": [
        {
          "internalType": "bool",
          "name": "_tradingEnabled",
          "type": "bool"
        }
      ],
      "name": "setTradingEnable",
      "outputs": [],
      "stateMutability": "nonpayable",
      "type": "function"
    },
    {
      "inputs": [
        {
          "internalType": "uint256",
          "name": "_marketingFee",
          "type": "uint256"
        },
        {
          "internalType": "uint256",
          "name": "_gameWalletFee",
          "type": "uint256"
        },
        {
          "internalType": "uint256",
          "name": "_liquidityFee",
          "type": "uint256"
        },
        {
          "internalType": "uint256",
          "name": "_poolfee",
          "type": "uint256"
        }
      ],
      "name": "setbuyFee",
      "outputs": [],
      "stateMutability": "nonpayable",
      "type": "function"
    },
    {
      "inputs": [
        {
          "internalType": "uint256",
          "name": "_marketingFee",
          "type": "uint256"
        },
        {
          "internalType": "uint256",
          "name": "_gameWalletFee",
          "type": "uint256"
        },
        {
          "internalType": "uint256",
          "name": "_liquidityFee",
          "type": "uint256"
        },
        {
          "internalType": "uint256",
          "name": "_poolfee",
          "type": "uint256"
        }
      ],
      "name": "setsellFee",
      "outputs": [],
      "stateMutability": "nonpayable",
      "type": "function"
    },
    {
      "inputs": [],
      "name": "swapAndLiquifyEnabled",
      "outputs": [
        {
          "internalType": "bool",
          "name": "",
          "type": "bool"
        }
      ],
      "stateMutability": "view",
      "type": "function"
    },
    {
      "inputs": [],
      "name": "symbol",
      "outputs": [
        {
          "internalType": "string",
          "name": "",
          "type": "string"
        }
      ],
      "stateMutability": "view",
      "type": "function"
    },
    {
      "inputs": [],
      "name": "totalSupply",
      "outputs": [
        {
          "internalType": "uint256",
          "name": "",
          "type": "uint256"
        }
      ],
      "stateMutability": "view",
      "type": "function"
    },
    {
      "inputs": [],
      "name": "tradingEnabled",
      "outputs": [
        {
          "internalType": "bool",
          "name": "",
          "type": "bool"
        }
      ],
      "stateMutability": "view",
      "type": "function"
    },
    {
      "inputs": [
        {
          "internalType": "address",
          "name": "recipient",
          "type": "address"
        },
        {
          "internalType": "uint256",
          "name": "amount",
          "type": "uint256"
        }
      ],
      "name": "transfer",
      "outputs": [
        {
          "internalType": "bool",
          "name": "",
          "type": "bool"
        }
      ],
      "stateMutability": "nonpayable",
      "type": "function"
    },
    {
      "inputs": [
        {
          "internalType": "address",
          "name": "sender",
          "type": "address"
        },
        {
          "internalType": "address",
          "name": "recipient",
          "type": "address"
        },
        {
          "internalType": "uint256",
          "name": "amount",
          "type": "uint256"
        }
      ],
      "name": "transferFrom",
      "outputs": [
        {
          "internalType": "bool",
          "name": "",
          "type": "bool"
        }
      ],
      "stateMutability": "nonpayable",
      "type": "function"
    },
    {
      "inputs": [
        {
          "internalType": "address",
          "name": "newOwner",
          "type": "address"
        }
      ],
      "name": "transferOwnership",
      "outputs": [],
      "stateMutability": "nonpayable",
      "type": "function"
    },
    {
      "stateMutability": "payable",
      "type": "receive"
    }
  ],
  "bytecode": "0x6080604052600c805460ff60b01b1960ff60a81b19909116600160a81b1716600160b01b17905569d3c21bcecceda10000006018556a0422ca8b0a00a425000000601955683635c9adc5dea00000601a553480156200005d57600080fd5b5060405162002963380380620029638339810160408190526200008091620004d7565b60006200008c62000437565b600080546001600160a01b0319166001600160a01b0383169081178255604051929350917f8be0079c531659141344cd1fd0a4f28419497f9722a3daafe3b4186f6b6457e0908290a35060408051808201909152600a8082526922a0a9aa22a929a424a160b11b602090920191825262000109916006916200043b565b506040805180820190915260068082526522a0a9a424a160d11b602090920191825262000139916005916200043b565b506004805460ff1916601290811782556a52b7d2dcc80cd2e4000000600381905533600090815260016020908152604080832093909355601e60118190556014948590556013819055918455600d829055600e93909355600f55600b80546001600160a01b0386166001600160a01b03199091168117909155815163c45a015560e01b815291518594919363c45a0155938084019391929190829003018186803b158015620001e757600080fd5b505afa158015620001fc573d6000803e3d6000fd5b505050506040513d601f19601f82011682018060405250810190620002229190620004d7565b6001600160a01b031663c9c6539630836001600160a01b031663ad5c46486040518163ffffffff1660e01b815260040160206040518083038186803b1580156200026b57600080fd5b505afa15801562000280573d6000803e3d6000fd5b505050506040513d601f19601f82011682018060405250810190620002a69190620004d7565b6040518363ffffffff1660e01b8152600401620002c592919062000507565b602060405180830381600087803b158015620002e057600080fd5b505af1158015620002f5573d6000803e3d6000fd5b505050506040513d601f19601f820116820180604052508101906200031b9190620004d7565b600c80546001600160a01b0319166001600160a01b03928316178155336000818152601560209081526040808320805460ff19908116600190811790925560169093528184208054841682179055945490951682528482208054909116909317909255600354925190927fddf252ad1be2c89b69c2b068fc378daa952ba7f163c4a11628f55a4df523b3ef91620003b391906200054a565b60405180910390a37f4033c61b7a7bda78889373d049a0bb6dd3500d8bff8ace1617cb78413102e8076011604051620003ed919062000521565b60405180910390a17f59b16bf8c94a0fd94bd5c030ec293d45b519b7dc85a474b840ddd20e347ff43b600d60405162000427919062000521565b60405180910390a1505062000553565b3390565b828054600181600116156101000203166002900490600052602060002090601f016020900481019282601f106200047e57805160ff1916838001178555620004ae565b82800160010185558215620004ae579182015b82811115620004ae57825182559160200191906001019062000491565b50620004bc929150620004c0565b5090565b5b80821115620004bc5760008155600101620004c1565b600060208284031215620004e9578081fd5b81516001600160a01b038116811462000500578182fd5b9392505050565b6001600160a01b0392831681529116602082015260400190565b815481526001820154602082015260028201546040820152600390910154606082015260800190565b90815260200190565b61240080620005636000396000f3fe60806040526004361061024a5760003560e01c8063715018a611610139578063a9059cbb116100b6578063dd62ed3e1161007a578063dd62ed3e14610631578063e0f3ccf514610651578063e4748b9e14610676578063ec28438a1461068b578063f2fde38b146106ab578063f5034b0a146106cb57610251565b8063a9059cbb146105a7578063aa1ef598146105c7578063c1258a40146105e7578063c5820ad0146105fc578063d12a76881461061c57610251565b80638da5cb5b116100fd5780638da5cb5b1461053357806395d89b4114610548578063a168d8731461055d578063a457c2d714610572578063a5ece9411461059257610251565b8063715018a6146104b45780637439c236146104c9578063799bec12146104e95780637d1db4a514610509578063893d20e81461051e57610251565b8063313ce567116101c757806347cb8c041161018b57806347cb8c04146104405780634a74bb02146104555780634ada218b1461046a5780636c0a24eb1461047f57806370a082311461049457610251565b8063313ce567146103a957806339509351146103cb5780633e341212146103eb578063421ea58b1461040b57806342966c681461042057610251565b806318160ddd1161020e57806318160ddd146103125780631ebe8be81461033457806323b872dd1461034957806327a14fc21461036957806328ec13ee1461038957610251565b8063061dc8ef1461025657806306fdde0314610278578063095ea7b3146102a3578063153b0d1e146102d05780631755ff21146102f057610251565b3661025157005b600080fd5b34801561026257600080fd5b50610276610271366004611d32565b6106e0565b005b34801561028457600080fd5b5061028d610749565b60405161029a9190611eb3565b60405180910390f35b3480156102af57600080fd5b506102c36102be366004611d63565b6107df565b60405161029a9190611ea8565b3480156102dc57600080fd5b506102766102eb366004611d32565b6107fd565b3480156102fc57600080fd5b50610305610894565b60405161029a9190611e24565b34801561031e57600080fd5b506103276108a3565b60405161029a9190612248565b34801561034057600080fd5b506103276108a9565b34801561035557600080fd5b506102c3610364366004611cf2565b6108bb565b34801561037557600080fd5b50610276610384366004611dae565b610942565b34801561039557600080fd5b506102766103a4366004611c38565b61097c565b3480156103b557600080fd5b506103be610b52565b60405161029a91906122f2565b3480156103d757600080fd5b506102c36103e6366004611d63565b610b5b565b3480156103f757600080fd5b50610276610406366004611df3565b610ba9565b34801561041757600080fd5b50610305610c2e565b34801561042c57600080fd5b5061027661043b366004611dae565b610c3d565b34801561044c57600080fd5b50610327610c4a565b34801561046157600080fd5b506102c3610c5c565b34801561047657600080fd5b506102c3610c6c565b34801561048b57600080fd5b50610327610c7c565b3480156104a057600080fd5b506103276104af366004611c38565b610c82565b3480156104c057600080fd5b50610276610c9d565b3480156104d557600080fd5b506102766104e4366004611d8e565b610d1c565b3480156104f557600080fd5b50610276610504366004611d32565b610d6f565b34801561051557600080fd5b50610327610dfa565b34801561052a57600080fd5b50610305610e00565b34801561053f57600080fd5b50610305610e0f565b34801561055457600080fd5b5061028d610e1e565b34801561056957600080fd5b50610305610e7f565b34801561057e57600080fd5b506102c361058d366004611d63565b610e8e565b34801561059e57600080fd5b50610305610ef6565b3480156105b357600080fd5b506102c36105c2366004611d63565b610f05565b3480156105d357600080fd5b506102766105e2366004611ca8565b610f19565b3480156105f357600080fd5b50610305610f8d565b34801561060857600080fd5b50610276610617366004611df3565b610f9c565b34801561062857600080fd5b50610327611013565b34801561063d57600080fd5b5061032761064c366004611c70565b611019565b34801561065d57600080fd5b50610666611044565b60405161029a94939291906122d7565b34801561068257600080fd5b50610666611053565b34801561069757600080fd5b506102766106a6366004611dae565b611062565b3480156106b757600080fd5b506102766106c6366004611c38565b61109c565b3480156106d757600080fd5b506103056110da565b6106e86110e9565b6000546001600160a01b0390811691161461071e5760405162461bcd60e51b8152600401610715906120af565b60405180910390fd5b6001600160a01b03919091166000908152601660205260409020805460ff1916911515919091179055565b60068054604080516020601f60026000196101006001881615020190951694909404938401819004810282018101909252828152606093909290918301828280156107d55780601f106107aa576101008083540402835291602001916107d5565b820191906000526020600020905b8154815290600101906020018083116107b857829003601f168201915b5050505050905090565b60006107f36107ec6110e9565b84846110ed565b5060015b92915050565b6108056110e9565b6000546001600160a01b039081169116146108325760405162461bcd60e51b8152600401610715906120af565b6001600160a01b03821660009081526017602052604090819020805460ff1916831515179055517f1365a36244c5f48793fe8c34e438f543de193bdea38c4f133c166dce6fc12145906108889084908490611e8d565b60405180910390a15050565b6009546001600160a01b031681565b60035490565b60145460135460125460115401010190565b60006108c88484846111a1565b610938846108d46110e9565b61093385604051806060016040528060288152602001612316602891396001600160a01b038a166000908152600260205260408120906109126110e9565b6001600160a01b0316815260208101919091526040016000205491906115f2565b6110ed565b5060019392505050565b61094a6110e9565b6000546001600160a01b039081169116146109775760405162461bcd60e51b8152600401610715906120af565b601955565b6109846110e9565b6000546001600160a01b039081169116146109b15760405162461bcd60e51b8152600401610715906120af565b600b80546001600160a01b0319166001600160a01b0383169081179091556040805163c45a015560e01b8152905183929163c45a0155916004808301926020929190829003018186803b158015610a0757600080fd5b505afa158015610a1b573d6000803e3d6000fd5b505050506040513d601f19601f82011682018060405250810190610a3f9190611c54565b6001600160a01b031663c9c6539630836001600160a01b031663ad5c46486040518163ffffffff1660e01b815260040160206040518083038186803b158015610a8757600080fd5b505afa158015610a9b573d6000803e3d6000fd5b505050506040513d601f19601f82011682018060405250810190610abf9190611c54565b6040518363ffffffff1660e01b8152600401610adc929190611e38565b602060405180830381600087803b158015610af657600080fd5b505af1158015610b0a573d6000803e3d6000fd5b505050506040513d601f19601f82011682018060405250810190610b2e9190611c54565b600c80546001600160a01b0319166001600160a01b03929092169190911790555050565b60045460ff1690565b60006107f3610b686110e9565b846109338560026000610b796110e9565b6001600160a01b03908116825260208083019390935260409182016000908120918c16815292529020549061161e565b610bb16110e9565b6000546001600160a01b03908116911614610bde5760405162461bcd60e51b8152600401610715906120af565b60118481556012849055601383905560148290556040517f4033c61b7a7bda78889373d049a0bb6dd3500d8bff8ace1617cb78413102e80791610c209161221f565b60405180910390a150505050565b600b546001600160a01b031681565b610c47338261164a565b50565b601054600f54600e54600d5401010190565b600c54600160a81b900460ff1681565b600c54600160b01b900460ff1681565b60195481565b6001600160a01b031660009081526001602052604090205490565b610ca56110e9565b6000546001600160a01b03908116911614610cd25760405162461bcd60e51b8152600401610715906120af565b600080546040516001600160a01b03909116907f8be0079c531659141344cd1fd0a4f28419497f9722a3daafe3b4186f6b6457e0908390a3600080546001600160a01b0319169055565b610d246110e9565b6000546001600160a01b03908116911614610d515760405162461bcd60e51b8152600401610715906120af565b600c8054911515600160b01b0260ff60b01b19909216919091179055565b610d776110e9565b6000546001600160a01b03908116911614610da45760405162461bcd60e51b8152600401610715906120af565b6001600160a01b03821660009081526015602052604090819020805460ff1916831515179055517fd5144d2a6c8ff9b87b7a40852df5102cab2ce561c06b56cc6fe7ccf1fa7f8c2d906108889084908490611e8d565b60185481565b6000610e0a610e0f565b905090565b6000546001600160a01b031690565b60058054604080516020601f60026000196101006001881615020190951694909404938401819004810282018101909252828152606093909290918301828280156107d55780601f106107aa576101008083540402835291602001916107d5565b6008546001600160a01b031681565b60006107f3610e9b6110e9565b84610933856040518060600160405280602581526020016123846025913960026000610ec56110e9565b6001600160a01b03908116825260208083019390935260409182016000908120918d168152925290205491906115f2565b6007546001600160a01b031681565b60006107f3610f126110e9565b84846111a1565b610f216110e9565b6000546001600160a01b03908116911614610f4e5760405162461bcd60e51b8152600401610715906120af565b600780546001600160a01b039485166001600160a01b031991821617909155600880549385169382169390931790925560098054919093169116179055565b600c546001600160a01b031681565b610fa46110e9565b6000546001600160a01b03908116911614610fd15760405162461bcd60e51b8152600401610715906120af565b600d848155600e849055600f83905560108290556040517f59b16bf8c94a0fd94bd5c030ec293d45b519b7dc85a474b840ddd20e347ff43b91610c209161221f565b601a5481565b6001600160a01b03918216600090815260026020908152604080832093909416825291909152205490565b600d54600e54600f5460105484565b60115460125460135460145484565b61106a6110e9565b6000546001600160a01b039081169116146110975760405162461bcd60e51b8152600401610715906120af565b601855565b6110a46110e9565b6000546001600160a01b039081169116146110d15760405162461bcd60e51b8152600401610715906120af565b610c478161170e565b600a546001600160a01b031681565b3390565b6001600160a01b0383166111135760405162461bcd60e51b815260040161071590611f4b565b6001600160a01b0382166111395760405162461bcd60e51b8152600401610715906121dd565b6001600160a01b0380841660008181526002602090815260408083209487168084529490915290819020849055517f8c5be1e5ebec7d5bd14f71427d1e84f3dd0314c0f7b2291e5b200ac8c7c3b92590611194908590612248565b60405180910390a3505050565b6001600160a01b0383166111c75760405162461bcd60e51b815260040161071590611f06565b6001600160a01b0382166111ed5760405162461bcd60e51b8152600401610715906120e4565b6001600160a01b03831660009081526017602052604090205460ff1615801561122f57506001600160a01b03821660009081526017602052604090205460ff16155b61124b5760405162461bcd60e51b815260040161071590612168565b600c546001600160a01b03848116911614806112745750600c546001600160a01b038381169116145b801561129957506001600160a01b03831660009081526015602052604090205460ff16155b156112e9578060185410156112c05760405162461bcd60e51b81526004016107159061218b565b600c54600160b01b900460ff166112e95760405162461bcd60e51b81526004016107159061200c565b6113268160405180606001604052806026815260200161233e602691396001600160a01b03861660009081526001602052604090205491906115f2565b6001600160a01b038416600090815260016020526040812091909155819061134d30610c82565b9050601854811061135d57506018545b601a548110801590819061137b5750600c54600160a01b900460ff16155b80156113955750600c546001600160a01b03878116911614155b80156113aa5750600c54600160a81b900460ff165b156113bd57601a5491506113bd8261178f565b6001600160a01b03861660009081526015602052604090205460ff1661152957600c546001600160a01b0387811691161415611491576114156103e861140f6114046108a9565b86906103e803611935565b9061196f565b925061142f6103e861140f6114286108a9565b8790611935565b30600081815260016020526040902080549092019091556013546001600160a01b0388169060008051602061236483398151915290611477906103e89061140f908a90611935565b6040516114849190612248565b60405180910390a3611529565b600c546001600160a01b0386811691161415611529576114b86103e861140f611404610c4a565b92506114cb6103e861140f611428610c4a565b3060008181526001602052604090208054909201909155600f546001600160a01b0388169060008051602061236483398151915290611513906103e89061140f908a90611935565b6040516115209190612248565b60405180910390a35b6001600160a01b03851660009081526001602052604090205461154c908461161e565b6001600160a01b03861660009081526001602090815260408083209390935560169052205460ff166115b1576019546001600160a01b038616600090815260016020526040902054106115b15760405162461bcd60e51b81526004016107159061207a565b846001600160a01b0316866001600160a01b0316600080516020612364833981519152856040516115e29190612248565b60405180910390a3505050505050565b600081848411156116165760405162461bcd60e51b81526004016107159190611eb3565b505050900390565b6000828201838110156116435760405162461bcd60e51b815260040161071590611fd5565b9392505050565b6001600160a01b0382166116705760405162461bcd60e51b815260040161071590612127565b6116ad816040518060600160405280602281526020016123a9602291396001600160a01b03851660009081526001602052604090205491906115f2565b6001600160a01b0383166000908152600160205260409020556003546116d390826119b1565b6003556040516000906001600160a01b0384169060008051602061236483398151915290611702908590612248565b60405180910390a35050565b6001600160a01b0381166117345760405162461bcd60e51b815260040161071590611f8f565b600080546040516001600160a01b03808516939216917f8be0079c531659141344cd1fd0a4f28419497f9722a3daafe3b4186f6b6457e091a3600080546001600160a01b0319166001600160a01b0392909216919091179055565b600c805460ff60a01b1916600160a01b17905560006117bd6117af6108a9565b60135461140f908590611935565b905060006117cc82600261196f565b905060006117da84836119b1565b90506117e5816119f3565b60075447906001600160a01b03166108fc61180f6118016108a9565b60115461140f908690611935565b6040518115909202916000818181858888f19350505050158015611837573d6000803e3d6000fd5b506008546001600160a01b03166108fc6118606118526108a9565b60125461140f908690611935565b6040518115909202916000818181858888f19350505050158015611888573d6000803e3d6000fd5b506009546001600160a01b03166108fc6118b16118a36108a9565b60145461140f908690611935565b6040518115909202916000818181858888f193505050501580156118d9573d6000803e3d6000fd5b50476118e58482611b4f565b7f17bbfb9a6069321b6ded73bd96327c9e6b7212a5cd51ff219cd61370acafb561848385604051611918939291906122c1565b60405180910390a15050600c805460ff60a01b1916905550505050565b600082611944575060006107f7565b8282028284828161195157fe5b04146116435760405162461bcd60e51b815260040161071590612039565b600061164383836040518060400160405280601a81526020017f536166654d6174683a206469766973696f6e206279207a65726f000000000000815250611c01565b600061164383836040518060400160405280601e81526020017f536166654d6174683a207375627472616374696f6e206f766572666c6f7700008152506115f2565b60408051600280825260608083018452926020830190803683370190505090503081600081518110611a2157fe5b6001600160a01b03928316602091820292909201810191909152600b54604080516315ab88c960e31b81529051919093169263ad5c4648926004808301939192829003018186803b158015611a7557600080fd5b505afa158015611a89573d6000803e3d6000fd5b505050506040513d601f19601f82011682018060405250810190611aad9190611c54565b81600181518110611aba57fe5b6001600160a01b039283166020918202929092010152600b54611ae091309116846110ed565b600b5460405163791ac94760e01b81526001600160a01b039091169063791ac94790611b19908590600090869030904290600401612251565b600060405180830381600087803b158015611b3357600080fd5b505af1158015611b47573d6000803e3d6000fd5b505050505050565b600b54611b679030906001600160a01b0316846110ed565b600b546001600160a01b031663f305d719823085600080611b86610e0f565b426040518863ffffffff1660e01b8152600401611ba896959493929190611e52565b6060604051808303818588803b158015611bc157600080fd5b505af1158015611bd5573d6000803e3d6000fd5b50505050506040513d601f19601f82011682018060405250810190611bfa9190611dc6565b5050505050565b60008183611c225760405162461bcd60e51b81526004016107159190611eb3565b506000838581611c2e57fe5b0495945050505050565b600060208284031215611c49578081fd5b813561164381612300565b600060208284031215611c65578081fd5b815161164381612300565b60008060408385031215611c82578081fd5b8235611c8d81612300565b91506020830135611c9d81612300565b809150509250929050565b600080600060608486031215611cbc578081fd5b8335611cc781612300565b92506020840135611cd781612300565b91506040840135611ce781612300565b809150509250925092565b600080600060608486031215611d06578283fd5b8335611d1181612300565b92506020840135611d2181612300565b929592945050506040919091013590565b60008060408385031215611d44578182fd5b8235611d4f81612300565b915060208301358015158114611c9d578182fd5b60008060408385031215611d75578182fd5b8235611d8081612300565b946020939093013593505050565b600060208284031215611d9f578081fd5b81358015158114611643578182fd5b600060208284031215611dbf578081fd5b5035919050565b600080600060608486031215611dda578283fd5b8351925060208401519150604084015190509250925092565b60008060008060808587031215611e08578081fd5b5050823594602084013594506040840135936060013592509050565b6001600160a01b0391909116815260200190565b6001600160a01b0392831681529116602082015260400190565b6001600160a01b039687168152602081019590955260408501939093526060840191909152909216608082015260a081019190915260c00190565b6001600160a01b039290921682521515602082015260400190565b901515815260200190565b6000602080835283518082850152825b81811015611edf57858101830151858201604001528201611ec3565b81811115611ef05783604083870101525b50601f01601f1916929092016040019392505050565b60208082526025908201527f42455032303a207472616e736665722066726f6d20746865207a65726f206164604082015264647265737360d81b606082015260800190565b60208082526024908201527f42455032303a20617070726f76652066726f6d20746865207a65726f206164646040820152637265737360e01b606082015260800190565b60208082526026908201527f4f776e61626c653a206e6577206f776e657220697320746865207a65726f206160408201526564647265737360d01b606082015260800190565b6020808252601b908201527f536166654d6174683a206164646974696f6e206f766572666c6f770000000000604082015260600190565b6020808252601390820152721d1c98591a5b99c81a5cc8191a5cd8589b1959606a1b604082015260600190565b60208082526021908201527f536166654d6174683a206d756c7469706c69636174696f6e206f766572666c6f6040820152607760f81b606082015260800190565b6020808252818101527f616c72656164792062616c616e6365206578697374206d617820616d6f756e74604082015260600190565b6020808252818101527f4f776e61626c653a2063616c6c6572206973206e6f7420746865206f776e6572604082015260600190565b60208082526023908201527f42455032303a207472616e7366657220746f20746865207a65726f206164647260408201526265737360e81b606082015260800190565b60208082526021908201527f42455032303a206275726e2066726f6d20746865207a65726f206164647265736040820152607360f81b606082015260800190565b602080825260099082015268189b1858dadb1a5cdd60ba1b604082015260600190565b60208082526032908201527f42455032303a207472616e7366657220616d6f756e742065786365656473206d604082015271185e081d1c985b9cd9995c88185b5bdd5b9d60721b606082015260800190565b60208082526022908201527f42455032303a20617070726f766520746f20746865207a65726f206164647265604082015261737360f01b606082015260800190565b815481526001820154602082015260028201546040820152600390910154606082015260800190565b90815260200190565b600060a082018783526020878185015260a0604085015281875180845260c0860191508289019350845b818110156122a05784516001600160a01b03168352938301939183019160010161227b565b50506001600160a01b03969096166060850152505050608001529392505050565b9283526020830191909152604082015260600190565b93845260208401929092526040830152606082015260800190565b60ff91909116815260200190565b6001600160a01b0381168114610c4757600080fdfe42455032303a207472616e7366657220616d6f756e74206578636565647320616c6c6f77616e636542455032303a207472616e7366657220616d6f756e7420657863656564732062616c616e6365ddf252ad1be2c89b69c2b068fc378daa952ba7f163c4a11628f55a4df523b3ef42455032303a2064656372656173656420616c6c6f77616e63652062656c6f77207a65726f42455032303a206275726e20616d6f756e7420657863656564732062616c616e6365a2646970667358221220e09087dea13e2da87ddd41c014f60d4373536802bc71aeeff9b94b900c34196c64736f6c634300060c0033",
  "linkReferences": {},
  "deployedLinkReferences": {}
}