{
  "_format": "hh-sol-artifact-1",
  "contractName": "Staking",
  "sourceName": "contracts/staking.sol",
  "abi": [
    {
      "inputs": [
        {
          "internalType": "address",
          "name": "_stakeTokenAddress",
          "type": "address"
        },
        {
          "internalType": "address",
          "name": "_rewardTokenAddress_1",
          "type": "address"
        },
        {
          "internalType": "address",
          "name": "_rewardTokenAddress_2",
          "type": "address"
        }
      ],
      "stateMutability": "nonpayable",
      "type": "constructor"
    },
    {
      "anonymous": false,
      "inputs": [
        {
          "indexed": true,
          "internalType": "address",
          "name": "previousOwner",
          "type": "address"
        },
        {
          "indexed": true,
          "internalType": "address",
          "name": "newOwner",
          "type": "address"
        }
      ],
      "name": "OwnershipTransferred",
      "type": "event"
    },
    {
      "anonymous": false,
      "inputs": [
        {
          "indexed": false,
          "internalType": "address",
          "name": "staker",
          "type": "address"
        },
        {
          "indexed": false,
          "internalType": "uint256",
          "name": "amount_1",
          "type": "uint256"
        },
        {
          "indexed": false,
          "internalType": "uint256",
          "name": "amount_2",
          "type": "uint256"
        }
      ],
      "name": "Reward",
      "type": "event"
    },
    {
      "anonymous": false,
      "inputs": [
        {
          "indexed": false,
          "internalType": "address",
          "name": "staker",
          "type": "address"
        },
        {
          "indexed": false,
          "internalType": "uint256",
          "name": "amount",
          "type": "uint256"
        }
      ],
      "name": "Stake",
      "type": "event"
    },
    {
      "anonymous": false,
      "inputs": [
        {
          "indexed": false,
          "internalType": "address",
          "name": "staker",
          "type": "address"
        },
        {
          "indexed": false,
          "internalType": "uint256",
          "name": "amount",
          "type": "uint256"
        }
      ],
      "name": "Withdraw",
      "type": "event"
    },
    {
      "inputs": [],
      "name": "APY",
      "outputs": [
        {
          "internalType": "uint256",
          "name": "",
          "type": "uint256"
        }
      ],
      "stateMutability": "view",
      "type": "function"
    },
    {
      "inputs": [],
      "name": "PancakeSwapRouter",
      "outputs": [
        {
          "internalType": "contract IPancakeSwapRouter",
          "name": "",
          "type": "address"
        }
      ],
      "stateMutability": "view",
      "type": "function"
    },
    {
      "inputs": [
        {
          "internalType": "address",
          "name": "stakerAddress",
          "type": "address"
        }
      ],
      "name": "checkReward",
      "outputs": [
        {
          "internalType": "uint256",
          "name": "_reward_1",
          "type": "uint256"
        },
        {
          "internalType": "uint256",
          "name": "_reward_2",
          "type": "uint256"
        }
      ],
      "stateMutability": "view",
      "type": "function"
    },
    {
      "inputs": [],
      "name": "claimRewards",
      "outputs": [],
      "stateMutability": "nonpayable",
      "type": "function"
    },
    {
      "inputs": [
        {
          "internalType": "address",
          "name": "stakerAddress",
          "type": "address"
        }
      ],
      "name": "countFee",
      "outputs": [
        {
          "internalType": "uint256",
          "name": "_fee",
          "type": "uint256"
        }
      ],
      "stateMutability": "view",
      "type": "function"
    },
    {
      "inputs": [
        {
          "internalType": "address",
          "name": "stakerAddress",
          "type": "address"
        }
      ],
      "name": "countReward",
      "outputs": [
        {
          "internalType": "uint256",
          "name": "_reward_1",
          "type": "uint256"
        },
        {
          "internalType": "uint256",
          "name": "_reward_2",
          "type": "uint256"
        }
      ],
      "stateMutability": "view",
      "type": "function"
    },
    {
      "inputs": [
        {
          "internalType": "address",
          "name": "stakerAddress",
          "type": "address"
        }
      ],
      "name": "countStake",
      "outputs": [
        {
          "internalType": "uint256",
          "name": "_stake",
          "type": "uint256"
        }
      ],
      "stateMutability": "view",
      "type": "function"
    },
    {
      "inputs": [],
      "name": "countTotalReward",
      "outputs": [
        {
          "internalType": "uint256",
          "name": "_totalReward_1",
          "type": "uint256"
        },
        {
          "internalType": "uint256",
          "name": "_totalReward_2",
          "type": "uint256"
        }
      ],
      "stateMutability": "view",
      "type": "function"
    },
    {
      "inputs": [],
      "name": "countTotalStake",
      "outputs": [
        {
          "internalType": "uint256",
          "name": "_totalStake",
          "type": "uint256"
        }
      ],
      "stateMutability": "view",
      "type": "function"
    },
    {
      "inputs": [],
      "name": "getRewardableAmount",
      "outputs": [
        {
          "internalType": "uint256",
          "name": "_rewardableAmount_1",
          "type": "uint256"
        },
        {
          "internalType": "uint256",
          "name": "_rewardableAmount_2",
          "type": "uint256"
        }
      ],
      "stateMutability": "view",
      "type": "function"
    },
    {
      "inputs": [
        {
          "internalType": "address",
          "name": "stakerAddress",
          "type": "address"
        }
      ],
      "name": "getStakeInfo",
      "outputs": [
        {
          "internalType": "uint256",
          "name": "_total",
          "type": "uint256"
        },
        {
          "internalType": "uint256",
          "name": "_staking",
          "type": "uint256"
        },
        {
          "internalType": "uint256",
          "name": "_rewardable_1",
          "type": "uint256"
        },
        {
          "internalType": "uint256",
          "name": "_rewardable_2",
          "type": "uint256"
        },
        {
          "internalType": "uint256",
          "name": "_rewards_1",
          "type": "uint256"
        },
        {
          "internalType": "uint256",
          "name": "_rewards_2",
          "type": "uint256"
        }
      ],
      "stateMutability": "view",
      "type": "function"
    },
    {
      "inputs": [],
      "name": "lastUpdateTime",
      "outputs": [
        {
          "internalType": "uint256",
          "name": "",
          "type": "uint256"
        }
      ],
      "stateMutability": "view",
      "type": "function"
    },
    {
      "inputs": [],
      "name": "marketingAddress",
      "outputs": [
        {
          "internalType": "address",
          "name": "",
          "type": "address"
        }
      ],
      "stateMutability": "view",
      "type": "function"
    },
    {
      "inputs": [],
      "name": "owner",
      "outputs": [
        {
          "internalType": "address",
          "name": "",
          "type": "address"
        }
      ],
      "stateMutability": "view",
      "type": "function"
    },
    {
      "inputs": [],
      "name": "renounceOwnership",
      "outputs": [],
      "stateMutability": "nonpayable",
      "type": "function"
    },
    {
      "inputs": [],
      "name": "rewardTokenAddress_1",
      "outputs": [
        {
          "internalType": "address",
          "name": "",
          "type": "address"
        }
      ],
      "stateMutability": "view",
      "type": "function"
    },
    {
      "inputs": [],
      "name": "rewardTokenAddress_2",
      "outputs": [
        {
          "internalType": "address",
          "name": "",
          "type": "address"
        }
      ],
      "stateMutability": "view",
      "type": "function"
    },
    {
      "inputs": [
        {
          "internalType": "address",
          "name": "_RouterAddress",
          "type": "address"
        },
        {
          "internalType": "address",
          "name": "_marketingAddress",
          "type": "address"
        }
      ],
      "name": "setInitialAddresses",
      "outputs": [],
      "stateMutability": "nonpayable",
      "type": "function"
    },
    {
      "inputs": [
        {
          "internalType": "uint256",
          "name": "amount",
          "type": "uint256"
        },
        {
          "internalType": "address",
          "name": "referrar",
          "type": "address"
        }
      ],
      "name": "stake",
      "outputs": [],
      "stateMutability": "nonpayable",
      "type": "function"
    },
    {
      "inputs": [],
      "name": "stakeTokenAddress",
      "outputs": [
        {
          "internalType": "address",
          "name": "",
          "type": "address"
        }
      ],
      "stateMutability": "view",
      "type": "function"
    },
    {
      "inputs": [],
      "name": "stakerNum",
      "outputs": [
        {
          "internalType": "uint256",
          "name": "",
          "type": "uint256"
        }
      ],
      "stateMutability": "view",
      "type": "function"
    },
    {
      "inputs": [
        {
          "internalType": "address",
          "name": "",
          "type": "address"
        }
      ],
      "name": "stakers",
      "outputs": [
        {
          "internalType": "uint256",
          "name": "referal",
          "type": "uint256"
        },
        {
          "internalType": "uint256",
          "name": "stakingAmount",
          "type": "uint256"
        },
        {
          "internalType": "uint256",
          "name": "lastUpdateTime",
          "type": "uint256"
        },
        {
          "internalType": "uint256",
          "name": "lastStakeUpdateTime",
          "type": "uint256"
        },
        {
          "internalType": "uint256",
          "name": "stake",
          "type": "uint256"
        },
        {
          "internalType": "uint256",
          "name": "rewards_1",
          "type": "uint256"
        },
        {
          "internalType": "uint256",
          "name": "rewards_2",
          "type": "uint256"
        }
      ],
      "stateMutability": "view",
      "type": "function"
    },
    {
      "inputs": [],
      "name": "swapTokenForReward",
      "outputs": [],
      "stateMutability": "nonpayable",
      "type": "function"
    },
    {
      "inputs": [],
      "name": "totalStake",
      "outputs": [
        {
          "internalType": "uint256",
          "name": "",
          "type": "uint256"
        }
      ],
      "stateMutability": "view",
      "type": "function"
    },
    {
      "inputs": [],
      "name": "totalStakingAmount",
      "outputs": [
        {
          "internalType": "uint256",
          "name": "",
          "type": "uint256"
        }
      ],
      "stateMutability": "view",
      "type": "function"
    },
    {
      "inputs": [
        {
          "internalType": "address",
          "name": "newOwner",
          "type": "address"
        }
      ],
      "name": "transferOwnership",
      "outputs": [],
      "stateMutability": "nonpayable",
      "type": "function"
    },
    {
      "inputs": [],
      "name": "unstaking",
      "outputs": [],
      "stateMutability": "nonpayable",
      "type": "function"
    }
  ],
  "bytecode": "0x608060405234801561001057600080fd5b506040516121803803806121808339818101604052606081101561003357600080fd5b5080516020820151604090920151909190600061004e6100e1565b600080546001600160a01b0319166001600160a01b0383169081178255604051929350917f8be0079c531659141344cd1fd0a4f28419497f9722a3daafe3b4186f6b6457e0908290a350600180546001600160a01b039384166001600160a01b031991821617909155600280549284169282169290921790915560038054939092169216919091179055426006556100e5565b3390565b61208c806100f46000396000f3fe608060405234801561001057600080fd5b50600436106101a95760003560e01c80638da5cb5b116100f9578063c3c90e6411610097578063e7caa8c411610071578063e7caa8c414610418578063ef8bd30514610420578063f2fde38b14610428578063f4eb4a591461044e576101a9565b8063c3c90e64146103e2578063c8f33c9114610408578063d201114a14610410576101a9565b8063a9686e3c116100d3578063a9686e3c1461030f578063b083692d1461033d578063b87089d914610363578063c345315314610389576101a9565b80638da5cb5b146102a15780639168ae72146102a9578063a5ece94114610307576101a9565b806356714be31161016657806363c138b31161014057806363c138b31461025d578063715018a6146102655780637acb77571461026d5780638b0e9f3f14610299576101a9565b806356714be31461020e5780635f920bba1461024d578063630b114614610255576101a9565b80630106395f146101ae57806301c15475146101d25780630a84bf3e146101da5780632461da55146101e2578063372500ab146101fc578063421ea58b14610206575b600080fd5b6101b6610456565b604080516001600160a01b039092168252519081900360200190f35b6101b6610465565b6101b6610474565b6101ea610483565b60408051918252519081900360200190f35b6102046104af565b005b6101b66106db565b6102346004803603602081101561022457600080fd5b50356001600160a01b03166106ea565b6040805192835260208301919091528051918290030190f35b610204610760565b61020461077d565b6101ea6109e2565b6102046109e8565b6102046004803603604081101561028357600080fd5b50803590602001356001600160a01b0316610a9c565b6101ea610d44565b6101b6610d4a565b6102cf600480360360208110156102bf57600080fd5b50356001600160a01b0316610d5a565b604080519788526020880196909652868601949094526060860192909252608085015260a084015260c0830152519081900360e00190f35b6101b6610d97565b6102046004803603604081101561032557600080fd5b506001600160a01b0381358116916020013516610da6565b6101ea6004803603602081101561035357600080fd5b50356001600160a01b0316610e41565b6101ea6004803603602081101561037957600080fd5b50356001600160a01b0316610e84565b6103af6004803603602081101561039f57600080fd5b50356001600160a01b0316610f36565b604080519687526020870195909552858501939093526060850191909152608084015260a0830152519081900360c00190f35b610234600480360360208110156103f857600080fd5b50356001600160a01b0316610f99565b6101ea61142b565b6101ea611431565b610234611437565b6101ea611533565b6102046004803603602081101561043e57600080fd5b50356001600160a01b03166119f5565b610234611a6b565b6003546001600160a01b031681565b6001546001600160a01b031681565b6002546001600160a01b031681565b60006104a661049d60065442611afc90919063ffffffff16565b60055490611b52565b60075401905090565b336104b8611bb5565b6001600160a01b0381166000908152600a60205260408120546104da83610e84565b0190506000806104e9846106ea565b9150915060008211610542576040805162461bcd60e51b815260206004820152601c60248201527f7374616b696e67203a2072657761726420616d6f756e74206973203000000000604482015290519081900360640190fd5b6001546002546040805163a9059cbb60e01b81526001600160a01b038881166004830152602482018790529151938216939290911691839163a9059cbb9160448083019260209291908290030181600087803b1580156105a157600080fd5b505af11580156105b5573d6000803e3d6000fd5b505050506040513d60208110156105cb57600080fd5b50506040805163a9059cbb60e01b81526001600160a01b0388811660048301526024820186905291519183169163a9059cbb916044808201926020929091908290030181600087803b15801561062057600080fd5b505af1158015610634573d6000803e3d6000fd5b505050506040513d602081101561064a57600080fd5b50506001600160a01b0386166000818152600a602090815260408083206005810180548a01905560068101805489019055600780548b90039055600481018490559283554260029093019290925581519283528201869052818101859052517f02a6a2be713fedf52f113c0a759f1c1a23a113476d9b1b1a2a453c910660de4e9181900360600190a1505050505050565b6009546001600160a01b031681565b60008060006106f7610483565b9050600080610704611437565b91509150600061071387610e84565b905083156107345761072f846107298584611b52565b90611bec565b610737565b60005b955083156107525761074d846107298484611b52565b610755565b60005b945050505050915091565b60008061076b611a6b565b915091506107798282611c4a565b5050565b336000818152600a6020526040902060010154600061079b83610e41565b90506107a683610e84565b6001600160a01b0384166000908152600a602052604090206004810191909155600181018054849003905542600282018190556003909101556107e7611bb5565b6005805483900390558015610903576003546001600160a01b03166342966c686108186103e8610729866004611b52565b6040518263ffffffff1660e01b815260040180828152602001915050600060405180830381600087803b15801561084e57600080fd5b505af1158015610862573d6000803e3d6000fd5b50506003546004546001600160a01b03918216935063a9059cbb9250166108906103e8610729876005611b52565b6040518363ffffffff1660e01b815260040180836001600160a01b0316815260200182815260200192505050602060405180830381600087803b1580156108d657600080fd5b505af11580156108ea573d6000803e3d6000fd5b505050506040513d602081101561090057600080fd5b50505b6003546001600160a01b031663a9059cbb846109276103e861072987878303611b52565b6040518363ffffffff1660e01b815260040180836001600160a01b0316815260200182815260200192505050602060405180830381600087803b15801561096d57600080fd5b505af1158015610981573d6000803e3d6000fd5b505050506040513d602081101561099757600080fd5b5050604080516001600160a01b03851681526020810184905281517f884edad9ce6fa2440d8a54cc123490eb96d2768479d49ff9c7366125a9424364929181900390910190a1505050565b60085481565b6109f0611f4f565b6000546001600160a01b03908116911614610a52576040805162461bcd60e51b815260206004820181905260248201527f4f776e61626c653a2063616c6c6572206973206e6f7420746865206f776e6572604482015290519081900360640190fd5b600080546040516001600160a01b03909116907f8be0079c531659141344cd1fd0a4f28419497f9722a3daafe3b4186f6b6457e0908390a3600080546001600160a01b0319169055565b336000818152600a6020526040902060020154610abd576008805460010190555b610ac681610e84565b6001600160a01b0382166000908152600a6020526040902060040155610af46103e8610729856103de611b52565b6001600160a01b038083166000908152600a602052604090206001810180549093019092554260028301819055600390920191909155821615801590610b4c5750806001600160a01b0316826001600160a01b031614155b15610b81576001600160a01b0382166000908152600a6020526040902080546201518085029081019091556007805490910190555b610b89611bb5565b6003546001600160a01b03166323b872dd8230610bae6103e8610729896103e3611b52565b6040518463ffffffff1660e01b815260040180846001600160a01b03168152602001836001600160a01b031681526020018281526020019350505050602060405180830381600087803b158015610c0457600080fd5b505af1158015610c18573d6000803e3d6000fd5b505050506040513d6020811015610c2e57600080fd5b50506003546004546001600160a01b03918216916323b872dd91849116610c5c6103e8610729896005611b52565b6040518463ffffffff1660e01b815260040180846001600160a01b03168152602001836001600160a01b031681526020018281526020019350505050602060405180830381600087803b158015610cb257600080fd5b505af1158015610cc6573d6000803e3d6000fd5b505050506040513d6020811015610cdc57600080fd5b50610cf190506103e8610729856103e3611b52565b60058054919091019055604080516001600160a01b03831681526020810185905281517febedb8b3c678666e7f36970bc8f57abf6d8fa2e828c0da91ea5b75bf68ed101a929181900390910190a1505050565b60075481565b6000546001600160a01b03165b90565b600a602052600090815260409020805460018201546002830154600384015460048501546005860154600690960154949593949293919290919087565b6004546001600160a01b031681565b610dae611f4f565b6000546001600160a01b03908116911614610e10576040805162461bcd60e51b815260206004820181905260248201527f4f776e61626c653a2063616c6c6572206973206e6f7420746865206f776e6572604482015290519081900360640190fd5b600480546001600160a01b039283166001600160a01b03199182161790915560098054939092169216919091179055565b6001600160a01b0381166000908152600a602052604081206003015462375f0090610e6d904290611afc565b1015610e7b575060fa610e7f565b5060005b919050565b6000610e8e611ff3565b506001600160a01b0382166000908152600a6020908152604091829020825160e0810184528154815260018201549281019290925260028101549282018390526003810154606083015260048101546080830152600581015460a08301526006015460c082015290610f04576000915050610e7f565b610f298160200151610f23836040015142611afc90919063ffffffff16565b90611b52565b6080909101510192915050565b6005546001600160a01b0382166000908152600a602052604081206001015490808080610f62876106ea565b6001600160a01b039098166000908152600a6020526040902060058101546006909101549799969891979196909550909350915050565b6000806000610fa6610483565b9050600080610fb3611437565b91509150600080610fc2611a6b565b9150915067016345785d8a000082118015610fe4575067016345785d8a000081115b156113bf57604080516002808252606080830184529260208301908036833750506040805160028082526060808301845294955090925090602083019080368337505060035484519293506001600160a01b03169184915060009061104557fe5b6001600160a01b039283166020918202929092010152600180548451921691849190811061106f57fe5b6001600160a01b0392831660209182029290920101526003548251911690829060009061109857fe5b6001600160a01b0392831660209182029290920101526002548251911690829060019081106110c357fe5b6001600160a01b039283166020918202929092018101919091526009546040805163d06ca61f60e01b81526004810189815260248201928352875160448301528751606096949094169463d06ca61f948b948a949092606490910191858201910280838360005b8381101561114257818101518382015260200161112a565b50505050905001935050505060006040518083038186803b15801561116657600080fd5b505afa15801561117a573d6000803e3d6000fd5b505050506040513d6000823e601f3d908101601f1916820160405260208110156111a357600080fd5b8101908080516040519392919084600160201b8211156111c257600080fd5b9083019060208201858111156111d757600080fd5b82518660208202830111600160201b821117156111f357600080fd5b82525081516020918201928201910280838360005b83811015611220578181015183820152602001611208565b5050505091909101604081815260095463d06ca61f60e01b8352600483018c8152602484019283528a5160448501528a519899506060986001600160a01b03909216975063d06ca61f96508c95508a945092606401906020808601910280838360005b8381101561129b578181015183820152602001611283565b50505050905001935050505060006040518083038186803b1580156112bf57600080fd5b505afa1580156112d3573d6000803e3d6000fd5b505050506040513d6000823e601f3d908101601f1916820160405260208110156112fc57600080fd5b8101908080516040519392919084600160201b82111561131b57600080fd5b90830190602082018581111561133057600080fd5b82518660208202830111600160201b8211171561134c57600080fd5b82525081516020918201928201910280838360005b83811015611379578181015183820152602001611361565b5050505090500160405250505090508160008151811061139557fe5b602002602001015188019750806000815181106113ae57fe5b602002602001015187019650505050505b6001600160a01b0388166000908152600a60205260408120546113e18a610e84565b01905085156113fd576113f8866107298784611b52565b611400565b60005b9750851561141b57611416866107298684611b52565b61141e565b60005b9650505050505050915091565b60065481565b60055481565b600154604080516370a0823160e01b8152306004820152905160009283926001600160a01b03909116916370a0823191602480820192602092909190829003018186803b15801561148757600080fd5b505afa15801561149b573d6000803e3d6000fd5b505050506040513d60208110156114b157600080fd5b5051600254604080516370a0823160e01b815230600482015290519294506001600160a01b03909116916370a0823191602480820192602092909190829003018186803b15801561150157600080fd5b505afa158015611515573d6000803e3d6000fd5b505050506040513d602081101561152b57600080fd5b505191929050565b60008061153e610483565b90508061154f576000915050610d57565b60008061155a611437565b9150915060008067016345785d8a00008411801561157f575067016345785d8a000083115b1561195657604080516002808252606080830184529260208301908036833750506040805160028082526060808301845294955090925090602083019080368337505060035484519293506001600160a01b0316918491506000906115e057fe5b6001600160a01b039283166020918202929092010152600180548451921691849190811061160a57fe5b6001600160a01b0392831660209182029290920101526003548251911690829060009061163357fe5b6001600160a01b03928316602091820292909201015260025482519116908290600190811061165e57fe5b6001600160a01b03928316602091820292909201810191909152600954604080516307c0329d60e21b8152600481018b8152602482019283528751604483015287516060969490941694631f00ca74948d948a949092606490910191858201910280838360005b838110156116dd5781810151838201526020016116c5565b50505050905001935050505060006040518083038186803b15801561170157600080fd5b505afa158015611715573d6000803e3d6000fd5b505050506040513d6000823e601f3d908101601f19168201604052602081101561173e57600080fd5b8101908080516040519392919084600160201b82111561175d57600080fd5b90830190602082018581111561177257600080fd5b82518660208202830111600160201b8211171561178e57600080fd5b82525081516020918201928201910280838360005b838110156117bb5781810151838201526020016117a3565b505050509190910160408181526009546307c0329d60e21b8352600483018e8152602484019283528a5160448501528a519899506060986001600160a01b039092169750631f00ca7496508e95508a945092606401906020808601910280838360005b8381101561183657818101518382015260200161181e565b50505050905001935050505060006040518083038186803b15801561185a57600080fd5b505afa15801561186e573d6000803e3d6000fd5b505050506040513d6000823e601f3d908101601f19168201604052602081101561189757600080fd5b8101908080516040519392919084600160201b8211156118b657600080fd5b9083019060208201858111156118cb57600080fd5b82518660208202830111600160201b821117156118e757600080fd5b82525081516020918201928201910280838360005b838110156119145781810151838201526020016118fc565b5050505090500160405250505090508160008151811061193057fe5b602002602001015195508060018151811061194757fe5b60200260200101519450505050505b600554600354604080516370a0823160e01b81523060048201529051600093926001600160a01b0316916370a08231916024808301926020929190829003018186803b1580156119a557600080fd5b505afa1580156119b9573d6000803e3d6000fd5b505050506040513d60208110156119cf57600080fd5b50518484010103905085651cae8c13e0008202816119e957fe5b04965050505050505090565b6119fd611f4f565b6000546001600160a01b03908116911614611a5f576040805162461bcd60e51b815260206004820181905260248201527f4f776e61626c653a2063616c6c6572206973206e6f7420746865206f776e6572604482015290519081900360640190fd5b611a6881611f53565b50565b600554600354604080516370a0823160e01b815230600482015290516000938493849391926001600160a01b03909116916370a08231916024808301926020929190829003018186803b158015611ac157600080fd5b505afa158015611ad5573d6000803e3d6000fd5b505050506040513d6020811015611aeb57600080fd5b505160029190030493849350915050565b80820382811115611b4c576040805162461bcd60e51b815260206004820152601560248201527464732d6d6174682d7375622d756e646572666c6f7760581b604482015290519081900360640190fd5b92915050565b6000811580611b6d57505080820282828281611b6a57fe5b04145b611b4c576040805162461bcd60e51b815260206004820152601460248201527364732d6d6174682d6d756c2d6f766572666c6f7760601b604482015290519081900360640190fd5b6000611bbf611a6b565b509050678ac7230489e80000811115611bda57611bda610760565b611be2610483565b6007555042600655565b6000808211611c39576040805162461bcd60e51b815260206004820152601460248201527364732d6d6174682d6d756c2d6f766572666c6f7760601b604482015290519081900360640190fd5b818381611c4257fe5b049392505050565b604080516002808252606080830184529260208301908036833750506040805160028082526060808301845294955090925090602083019080368337505060035484519293506001600160a01b031691849150600090611ca657fe5b6001600160a01b0392831660209182029290920101526001805484519216918491908110611cd057fe5b6001600160a01b03928316602091820292909201015260035482519116908290600090611cf957fe5b6001600160a01b039283166020918202929092010152600254825191169082906001908110611d2457fe5b6001600160a01b039283166020918202929092018101919091526003546009546040805163095ea7b360e01b81529185166004830152888801602483015251919093169263095ea7b39260448083019391928290030181600087803b158015611d8c57600080fd5b505af1158015611da0573d6000803e3d6000fd5b505050506040513d6020811015611db657600080fd5b5050600954604051635c11d79560e01b8152600481018681526000602483018190523060648401819052426084850181905260a060448601908152885160a487015288516001600160a01b0390971696635c11d795968c968b9594939092909160c40190602087810191028083838b5b83811015611e3e578181015183820152602001611e26565b505050509050019650505050505050600060405180830381600087803b158015611e6757600080fd5b505af1158015611e7b573d6000803e3d6000fd5b5050600954604051635c11d79560e01b8152600481018781526000602483018190523060648401819052426084850181905260a060448601908152895160a487015289516001600160a01b039097169850635c11d79597508b9693958a95939492939260c490910190602080880191028083838b5b83811015611f08578181015183820152602001611ef0565b505050509050019650505050505050600060405180830381600087803b158015611f3157600080fd5b505af1158015611f45573d6000803e3d6000fd5b5050505050505050565b3390565b6001600160a01b038116611f985760405162461bcd60e51b81526004018080602001828103825260268152602001806120316026913960400191505060405180910390fd5b600080546040516001600160a01b03808516939216917f8be0079c531659141344cd1fd0a4f28419497f9722a3daafe3b4186f6b6457e091a3600080546001600160a01b0319166001600160a01b0392909216919091179055565b6040518060e0016040528060008152602001600081526020016000815260200160008152602001600081526020016000815260200160008152509056fe4f776e61626c653a206e6577206f776e657220697320746865207a65726f2061646472657373a2646970667358221220aee83586fb9ad57d4d4cc21be344f684e1e3ae00c75a74d40babc6c546a1189664736f6c634300060c0033",
  "linkReferences": {},
  "deployedLinkReferences": {}
}